{"abi":[{"type":"function","name":"CALLBACK_GAS_LIMIT_ANVIL","inputs":[],"outputs":[{"name":"","type":"uint32","internalType":"uint32"}],"stateMutability":"view"},{"type":"function","name":"CALLBACK_GAS_LIMIT_ETHEREUM","inputs":[],"outputs":[{"name":"","type":"uint32","internalType":"uint32"}],"stateMutability":"view"},{"type":"function","name":"CALLBACK_GAS_LIMIT_SEPOLIA","inputs":[],"outputs":[{"name":"","type":"uint32","internalType":"uint32"}],"stateMutability":"view"},{"type":"function","name":"CHAIN_ID_ETHEREUM","inputs":[],"outputs":[{"name":"","type":"uint256","internalType":"uint256"}],"stateMutability":"view"},{"type":"function","name":"CHAIN_ID_SEPOLIA","inputs":[],"outputs":[{"name":"","type":"uint256","internalType":"uint256"}],"stateMutability":"view"},{"type":"function","name":"ENTRY_PRICE","inputs":[],"outputs":[{"name":"","type":"uint256","internalType":"uint256"}],"stateMutability":"view"},{"type":"function","name":"GRACE_PERIOD","inputs":[],"outputs":[{"name":"","type":"uint256","internalType":"uint256"}],"stateMutability":"view"},{"type":"function","name":"KEYHASH_ETHEREUM","inputs":[],"outputs":[{"name":"","type":"bytes32","internalType":"bytes32"}],"stateMutability":"view"},{"type":"function","name":"KEYHASH_LOCAL","inputs":[],"outputs":[{"name":"","type":"bytes32","internalType":"bytes32"}],"stateMutability":"view"},{"type":"function","name":"KEYHASH_SEPOLIA","inputs":[],"outputs":[{"name":"","type":"bytes32","internalType":"bytes32"}],"stateMutability":"view"},{"type":"function","name":"LENGTH","inputs":[],"outputs":[{"name":"","type":"uint256","internalType":"uint256"}],"stateMutability":"view"},{"type":"function","name":"LINKWHALE_ETHEREUM","inputs":[],"outputs":[{"name":"","type":"address","internalType":"address"}],"stateMutability":"view"},{"type":"function","name":"LINK_TOKEN_ADDRESS_ETHEREUM","inputs":[],"outputs":[{"name":"","type":"address","internalType":"address"}],"stateMutability":"view"},{"type":"function","name":"LINK_TOKEN_ADDRESS_SEPOLIA","inputs":[],"outputs":[{"name":"","type":"address","internalType":"address"}],"stateMutability":"view"},{"type":"function","name":"MIN_LINK_AMOUNT","inputs":[],"outputs":[{"name":"","type":"uint256","internalType":"uint256"}],"stateMutability":"view"},{"type":"function","name":"REGISTRAR_ADDRESS_ETHEREUM","inputs":[],"outputs":[{"name":"","type":"address","internalType":"address"}],"stateMutability":"view"},{"type":"function","name":"REGISTRAR_ADDRESS_SEPOLIA","inputs":[],"outputs":[{"name":"","type":"address","internalType":"address"}],"stateMutability":"view"},{"type":"function","name":"VRF_COORDINATOR_V2_PLUS_ETHEREUM","inputs":[],"outputs":[{"name":"","type":"address","internalType":"address"}],"stateMutability":"view"},{"type":"function","name":"VRF_COORDINATOR_V2_PLUS_SEPOLIA","inputs":[],"outputs":[{"name":"","type":"address","internalType":"address"}],"stateMutability":"view"}],"bytecode":{"object":"0x6105e661004d600b8282823980515f1a6073146041577f4e487b71000000000000000000000000000000000000000000000000000000005f525f60045260245ffd5b305f52607381538281f3fe730000000000000000000000000000000000000000301460806040526004361061012a575f3560e01c806351ab3888116100b6578063b6e8b0d21161007a578063b6e8b0d2146102d2578063ba876313146102f0578063c1a287e21461030e578063cea2a5641461032c578063e3de8a521461034a5761012a565b806351ab38881461023c57806354ae258f1461025a5780635d4f194814610278578063aea9eff214610296578063b6bbc3d4146102b45761012a565b8063372ee2c9116100fd578063372ee2c9146101a6578063378de5c3146101c45780633cb46780146101e2578063416202cf146102005780634bf663521461021e5761012a565b8063129702ec1461012e57806328145e311461014c5780632e6636521461016a5780632f45c47b14610188575b5f5ffd5b610136610368565b60405161014391906104d7565b60405180910390f35b61015461036d565b604051610161919061050e565b60405180910390f35b610172610374565b60405161017f91906104d7565b60405180910390f35b61019061037a565b60405161019d9190610566565b60405180910390f35b6101ae610392565b6040516101bb9190610566565b60405180910390f35b6101cc6103aa565b6040516101d99190610566565b60405180910390f35b6101ea6103c2565b6040516101f79190610566565b60405180910390f35b6102086103da565b6040516102159190610566565b60405180910390f35b6102266103f2565b6040516102339190610566565b60405180910390f35b61024461040a565b60405161025191906104d7565b60405180910390f35b61026261040f565b60405161026f91906104d7565b60405180910390f35b610280610416565b60405161028d9190610597565b60405180910390f35b61029e61043c565b6040516102ab919061050e565b60405180910390f35b6102bc610443565b6040516102c99190610597565b60405180910390f35b6102da610469565b6040516102e7919061050e565b60405180910390f35b6102f8610470565b6040516103059190610566565b60405180910390f35b610316610488565b60405161032391906104d7565b60405180910390f35b61033461048d565b6040516103419190610597565b60405180910390f35b6103526104b3565b60405161035f91906104d7565b60405180910390f35b600581565b622625a081565b6101f481565b73b0e49c5d0d05cbc241d68c05bc5ba1d1b7b7297681565b73779877a7b0d9e8603169ddbd7836e478b462478981565b73d7f86b4b8cae7d942340ff628f82735b7a20893a81565b739ddfaca8183c41ad55329bdeed9f6a8d53168b1b81565b73514910771af9ca656af840dff83e8264ecf986ca81565b736b0b234fb2f380309d47a7e9391e29e9a179395a81565b600181565b62aa36a781565b7f8077df514608a09f83e4e8d300645594e5d7234665448ba83f51a50f842bd3d95f1b81565b622625a081565b7f787d74caea10b2b357790d5b5247c2f63d1d91572a9846f780606e4d953677ae5f1b81565b622625a081565b73f977814e90da44bfa03b6295a0616a897441acec81565b600581565b7fd89b2bf150e3b9e13446986e571fb9cab24b13cea0a43ea20a6049a85cc807cc5f1b81565b670de0b6b3a764000081565b5f819050919050565b6104d1816104bf565b82525050565b5f6020820190506104ea5f8301846104c8565b92915050565b5f63ffffffff82169050919050565b610508816104f0565b82525050565b5f6020820190506105215f8301846104ff565b92915050565b5f73ffffffffffffffffffffffffffffffffffffffff82169050919050565b5f61055082610527565b9050919050565b61056081610546565b82525050565b5f6020820190506105795f830184610557565b92915050565b5f819050919050565b6105918161057f565b82525050565b5f6020820190506105aa5f830184610588565b9291505056fea26469706673582212208257ba99ade8755f15fd79223145df950175d1f593706c832aa59248f8cc429364736f6c634300081e0033","linkReferences":{}},"methodIdentifiers":{"CALLBACK_GAS_LIMIT_ANVIL()":"28145e31","CALLBACK_GAS_LIMIT_ETHEREUM()":"b6e8b0d2","CALLBACK_GAS_LIMIT_SEPOLIA()":"aea9eff2","CHAIN_ID_ETHEREUM()":"51ab3888","CHAIN_ID_SEPOLIA()":"54ae258f","ENTRY_PRICE()":"e3de8a52","GRACE_PERIOD()":"c1a287e2","KEYHASH_ETHEREUM()":"5d4f1948","KEYHASH_LOCAL()":"cea2a564","KEYHASH_SEPOLIA()":"b6bbc3d4","LENGTH()":"2e663652","LINKWHALE_ETHEREUM()":"ba876313","LINK_TOKEN_ADDRESS_ETHEREUM()":"416202cf","LINK_TOKEN_ADDRESS_SEPOLIA()":"372ee2c9","MIN_LINK_AMOUNT()":"129702ec","REGISTRAR_ADDRESS_ETHEREUM()":"4bf66352","REGISTRAR_ADDRESS_SEPOLIA()":"2f45c47b","VRF_COORDINATOR_V2_PLUS_ETHEREUM()":"378de5c3","VRF_COORDINATOR_V2_PLUS_SEPOLIA()":"3cb46780"},"id":56}