{"abi":[{"type":"function","name":"CALLBACK_GAS_LIMIT_ANVIL","inputs":[],"outputs":[{"name":"","type":"uint32","internalType":"uint32"}],"stateMutability":"view"},{"type":"function","name":"CALLBACK_GAS_LIMIT_ETHEREUM","inputs":[],"outputs":[{"name":"","type":"uint32","internalType":"uint32"}],"stateMutability":"view"},{"type":"function","name":"CALLBACK_GAS_LIMIT_SEPOLIA","inputs":[],"outputs":[{"name":"","type":"uint32","internalType":"uint32"}],"stateMutability":"view"},{"type":"function","name":"CHAIN_ID_ETHEREUM","inputs":[],"outputs":[{"name":"","type":"uint256","internalType":"uint256"}],"stateMutability":"view"},{"type":"function","name":"CHAIN_ID_SEPOLIA","inputs":[],"outputs":[{"name":"","type":"uint256","internalType":"uint256"}],"stateMutability":"view"},{"type":"function","name":"DEPLOYER","inputs":[],"outputs":[{"name":"","type":"uint256","internalType":"uint256"}],"stateMutability":"view"},{"type":"function","name":"ENTRY_PRICE","inputs":[],"outputs":[{"name":"","type":"uint256","internalType":"uint256"}],"stateMutability":"view"},{"type":"function","name":"GRACE_PERIOD","inputs":[],"outputs":[{"name":"","type":"uint256","internalType":"uint256"}],"stateMutability":"view"},{"type":"function","name":"KEYHASH_ETHEREUM","inputs":[],"outputs":[{"name":"","type":"bytes32","internalType":"bytes32"}],"stateMutability":"view"},{"type":"function","name":"KEYHASH_LOCAL","inputs":[],"outputs":[{"name":"","type":"bytes32","internalType":"bytes32"}],"stateMutability":"view"},{"type":"function","name":"KEYHASH_SEPOLIA","inputs":[],"outputs":[{"name":"","type":"bytes32","internalType":"bytes32"}],"stateMutability":"view"},{"type":"function","name":"LENGTH","inputs":[],"outputs":[{"name":"","type":"uint256","internalType":"uint256"}],"stateMutability":"view"},{"type":"function","name":"LINK_TOKEN_ADDRESS_ETHEREUM","inputs":[],"outputs":[{"name":"","type":"address","internalType":"address"}],"stateMutability":"view"},{"type":"function","name":"LINK_TOKEN_ADDRESS_SEPOLIA","inputs":[],"outputs":[{"name":"","type":"address","internalType":"address"}],"stateMutability":"view"},{"type":"function","name":"MIN_LINK_AMOUNT","inputs":[],"outputs":[{"name":"","type":"uint256","internalType":"uint256"}],"stateMutability":"view"},{"type":"function","name":"REGISTRAR_ADDRESS_ETHEREUM","inputs":[],"outputs":[{"name":"","type":"address","internalType":"address"}],"stateMutability":"view"},{"type":"function","name":"REGISTRAR_ADDRESS_SEPOLIA","inputs":[],"outputs":[{"name":"","type":"address","internalType":"address"}],"stateMutability":"view"},{"type":"function","name":"VRF_COORDINATOR_V2_PLUS_ETHEREUM","inputs":[],"outputs":[{"name":"","type":"address","internalType":"address"}],"stateMutability":"view"},{"type":"function","name":"VRF_COORDINATOR_V2_PLUS_SEPOLIA","inputs":[],"outputs":[{"name":"","type":"address","internalType":"address"}],"stateMutability":"view"}],"bytecode":{"object":"0x6105d361004d600b8282823980515f1a6073146041577f4e487b71000000000000000000000000000000000000000000000000000000005f525f60045260245ffd5b305f52607381538281f3fe730000000000000000000000000000000000000000301460806040526004361061012a575f3560e01c806351ab3888116100b6578063b6e8b0d21161007a578063b6e8b0d2146102d2578063c1a287e2146102f0578063c1b8411a1461030e578063cea2a5641461032c578063e3de8a521461034a5761012a565b806351ab38881461023c57806354ae258f1461025a5780635d4f194814610278578063aea9eff214610296578063b6bbc3d4146102b45761012a565b8063372ee2c9116100fd578063372ee2c9146101a6578063378de5c3146101c45780633cb46780146101e2578063416202cf146102005780634bf663521461021e5761012a565b8063129702ec1461012e57806328145e311461014c5780632e6636521461016a5780632f45c47b14610188575b5f5ffd5b610136610368565b60405161014391906104c4565b60405180910390f35b61015461036d565b60405161016191906104fb565b60405180910390f35b610172610374565b60405161017f91906104c4565b60405180910390f35b61019061037a565b60405161019d9190610553565b60405180910390f35b6101ae610392565b6040516101bb9190610553565b60405180910390f35b6101cc6103aa565b6040516101d99190610553565b60405180910390f35b6101ea6103c2565b6040516101f79190610553565b60405180910390f35b6102086103da565b6040516102159190610553565b60405180910390f35b6102266103f2565b6040516102339190610553565b60405180910390f35b61024461040a565b60405161025191906104c4565b60405180910390f35b61026261040f565b60405161026f91906104c4565b60405180910390f35b610280610416565b60405161028d9190610584565b60405180910390f35b61029e61043c565b6040516102ab91906104fb565b60405180910390f35b6102bc610443565b6040516102c99190610584565b60405180910390f35b6102da610469565b6040516102e791906104fb565b60405180910390f35b6102f8610470565b60405161030591906104c4565b60405180910390f35b610316610475565b60405161032391906104c4565b60405180910390f35b61033461047a565b6040516103419190610584565b60405180910390f35b6103526104a0565b60405161035f91906104c4565b60405180910390f35b600581565b622625a081565b6101f481565b73b0e49c5d0d05cbc241d68c05bc5ba1d1b7b7297681565b73779877a7b0d9e8603169ddbd7836e478b462478981565b73d7f86b4b8cae7d942340ff628f82735b7a20893a81565b739ddfaca8183c41ad55329bdeed9f6a8d53168b1b81565b73514910771af9ca656af840dff83e8264ecf986ca81565b736b0b234fb2f380309d47a7e9391e29e9a179395a81565b600181565b62aa36a781565b7f8077df514608a09f83e4e8d300645594e5d7234665448ba83f51a50f842bd3d95f1b81565b622625a081565b7f787d74caea10b2b357790d5b5247c2f63d1d91572a9846f780606e4d953677ae5f1b81565b622625a081565b600581565b600781565b7fd89b2bf150e3b9e13446986e571fb9cab24b13cea0a43ea20a6049a85cc807cc5f1b81565b670de0b6b3a764000081565b5f819050919050565b6104be816104ac565b82525050565b5f6020820190506104d75f8301846104b5565b92915050565b5f63ffffffff82169050919050565b6104f5816104dd565b82525050565b5f60208201905061050e5f8301846104ec565b92915050565b5f73ffffffffffffffffffffffffffffffffffffffff82169050919050565b5f61053d82610514565b9050919050565b61054d81610533565b82525050565b5f6020820190506105665f830184610544565b92915050565b5f819050919050565b61057e8161056c565b82525050565b5f6020820190506105975f830184610575565b9291505056fea2646970667358221220cfc605d21d810b359452b4ac2f6081a6d5fd1280d6c45afb37c79a2d70cd114b64736f6c634300081e0033","linkReferences":{}},"methodIdentifiers":{"CALLBACK_GAS_LIMIT_ANVIL()":"28145e31","CALLBACK_GAS_LIMIT_ETHEREUM()":"b6e8b0d2","CALLBACK_GAS_LIMIT_SEPOLIA()":"aea9eff2","CHAIN_ID_ETHEREUM()":"51ab3888","CHAIN_ID_SEPOLIA()":"54ae258f","DEPLOYER()":"c1b8411a","ENTRY_PRICE()":"e3de8a52","GRACE_PERIOD()":"c1a287e2","KEYHASH_ETHEREUM()":"5d4f1948","KEYHASH_LOCAL()":"cea2a564","KEYHASH_SEPOLIA()":"b6bbc3d4","LENGTH()":"2e663652","LINK_TOKEN_ADDRESS_ETHEREUM()":"416202cf","LINK_TOKEN_ADDRESS_SEPOLIA()":"372ee2c9","MIN_LINK_AMOUNT()":"129702ec","REGISTRAR_ADDRESS_ETHEREUM()":"4bf66352","REGISTRAR_ADDRESS_SEPOLIA()":"2f45c47b","VRF_COORDINATOR_V2_PLUS_ETHEREUM()":"378de5c3","VRF_COORDINATOR_V2_PLUS_SEPOLIA()":"3cb46780"},"id":56}