{"abi":[{"type":"function","name":"CHAIN_ID_ETHEREUM","inputs":[],"outputs":[{"name":"","type":"uint256","internalType":"uint256"}],"stateMutability":"view"},{"type":"function","name":"CHAIN_ID_SEPOLIA","inputs":[],"outputs":[{"name":"","type":"uint256","internalType":"uint256"}],"stateMutability":"view"},{"type":"function","name":"ENTRY_PRICE","inputs":[],"outputs":[{"name":"","type":"uint256","internalType":"uint256"}],"stateMutability":"view"},{"type":"function","name":"GRACE_PERIOD","inputs":[],"outputs":[{"name":"","type":"uint256","internalType":"uint256"}],"stateMutability":"view"},{"type":"function","name":"LENGTH","inputs":[],"outputs":[{"name":"","type":"uint256","internalType":"uint256"}],"stateMutability":"view"},{"type":"function","name":"LINK_TOKEN_ADDRESS_ETHEREUM","inputs":[],"outputs":[{"name":"","type":"address","internalType":"address"}],"stateMutability":"view"},{"type":"function","name":"LINK_TOKEN_ADDRESS_SEPOLIA","inputs":[],"outputs":[{"name":"","type":"address","internalType":"address"}],"stateMutability":"view"},{"type":"function","name":"REGISTRAR_ADDRESS_ETHEREUM","inputs":[],"outputs":[{"name":"","type":"address","internalType":"address"}],"stateMutability":"view"},{"type":"function","name":"REGISTRAR_ADDRESS_SEPOLIA","inputs":[],"outputs":[{"name":"","type":"address","internalType":"address"}],"stateMutability":"view"}],"bytecode":{"object":"0x6102f061004d600b8282823980515f1a6073146041577f4e487b71000000000000000000000000000000000000000000000000000000005f525f60045260245ffd5b305f52607381538281f3fe730000000000000000000000000000000000000000301460806040526004361061009c575f3560e01c80634bf663521161006f5780634bf663521461011857806351ab38881461013657806354ae258f14610154578063c1a287e214610172578063e3de8a52146101905761009c565b80632e663652146100a05780632f45c47b146100be578063372ee2c9146100dc578063416202cf146100fa575b5f5ffd5b6100a86101ae565b6040516100b59190610249565b60405180910390f35b6100c66101b4565b6040516100d391906102a1565b60405180910390f35b6100e46101cc565b6040516100f191906102a1565b60405180910390f35b6101026101e4565b60405161010f91906102a1565b60405180910390f35b6101206101fc565b60405161012d91906102a1565b60405180910390f35b61013e610214565b60405161014b9190610249565b60405180910390f35b61015c610219565b6040516101699190610249565b60405180910390f35b61017a610220565b6040516101879190610249565b60405180910390f35b610198610225565b6040516101a59190610249565b60405180910390f35b6101f481565b73b0e49c5d0d05cbc241d68c05bc5ba1d1b7b7297681565b73779877a7b0d9e8603169ddbd7836e478b462478981565b73514910771af9ca656af840dff83e8264ecf986ca81565b736b0b234fb2f380309d47a7e9391e29e9a179395a81565b600181565b62aa36a781565b600581565b670de0b6b3a764000081565b5f819050919050565b61024381610231565b82525050565b5f60208201905061025c5f83018461023a565b92915050565b5f73ffffffffffffffffffffffffffffffffffffffff82169050919050565b5f61028b82610262565b9050919050565b61029b81610281565b82525050565b5f6020820190506102b45f830184610292565b9291505056fea2646970667358221220cd142bc64f48dd51c1bba7a1dcf9c05cc2887352de195a0be8c7af091aece07464736f6c634300081e0033","linkReferences":{}},"methodIdentifiers":{"CHAIN_ID_ETHEREUM()":"51ab3888","CHAIN_ID_SEPOLIA()":"54ae258f","ENTRY_PRICE()":"e3de8a52","GRACE_PERIOD()":"c1a287e2","LENGTH()":"2e663652","LINK_TOKEN_ADDRESS_ETHEREUM()":"416202cf","LINK_TOKEN_ADDRESS_SEPOLIA()":"372ee2c9","REGISTRAR_ADDRESS_ETHEREUM()":"4bf66352","REGISTRAR_ADDRESS_SEPOLIA()":"2f45c47b"},"id":33}