{"abi":[{"type":"function","name":"CALLBACK_GAS_LIMIT_ANVIL","inputs":[],"outputs":[{"name":"","type":"uint32","internalType":"uint32"}],"stateMutability":"view"},{"type":"function","name":"CALLBACK_GAS_LIMIT_ETHEREUM","inputs":[],"outputs":[{"name":"","type":"uint32","internalType":"uint32"}],"stateMutability":"view"},{"type":"function","name":"CALLBACK_GAS_LIMIT_SEPOLIA","inputs":[],"outputs":[{"name":"","type":"uint32","internalType":"uint32"}],"stateMutability":"view"},{"type":"function","name":"CHAIN_ID_ETHEREUM","inputs":[],"outputs":[{"name":"","type":"uint256","internalType":"uint256"}],"stateMutability":"view"},{"type":"function","name":"CHAIN_ID_SEPOLIA","inputs":[],"outputs":[{"name":"","type":"uint256","internalType":"uint256"}],"stateMutability":"view"},{"type":"function","name":"ENTRY_PRICE","inputs":[],"outputs":[{"name":"","type":"uint256","internalType":"uint256"}],"stateMutability":"view"},{"type":"function","name":"GRACE_PERIOD","inputs":[],"outputs":[{"name":"","type":"uint256","internalType":"uint256"}],"stateMutability":"view"},{"type":"function","name":"KEYHASH_ETHEREUM","inputs":[],"outputs":[{"name":"","type":"bytes32","internalType":"bytes32"}],"stateMutability":"view"},{"type":"function","name":"KEYHASH_LOCAL","inputs":[],"outputs":[{"name":"","type":"bytes32","internalType":"bytes32"}],"stateMutability":"view"},{"type":"function","name":"KEYHASH_SEPOLIA","inputs":[],"outputs":[{"name":"","type":"bytes32","internalType":"bytes32"}],"stateMutability":"view"},{"type":"function","name":"LENGTH","inputs":[],"outputs":[{"name":"","type":"uint256","internalType":"uint256"}],"stateMutability":"view"},{"type":"function","name":"LINK_TOKEN_ADDRESS_ETHEREUM","inputs":[],"outputs":[{"name":"","type":"address","internalType":"address"}],"stateMutability":"view"},{"type":"function","name":"LINK_TOKEN_ADDRESS_SEPOLIA","inputs":[],"outputs":[{"name":"","type":"address","internalType":"address"}],"stateMutability":"view"},{"type":"function","name":"REGISTRAR_ADDRESS_ETHEREUM","inputs":[],"outputs":[{"name":"","type":"address","internalType":"address"}],"stateMutability":"view"},{"type":"function","name":"REGISTRAR_ADDRESS_SEPOLIA","inputs":[],"outputs":[{"name":"","type":"address","internalType":"address"}],"stateMutability":"view"},{"type":"function","name":"VRF_COORDINATOR_V2_PLUS_ETHEREUM","inputs":[],"outputs":[{"name":"","type":"address","internalType":"address"}],"stateMutability":"view"},{"type":"function","name":"VRF_COORDINATOR_V2_PLUS_SEPOLIA","inputs":[],"outputs":[{"name":"","type":"address","internalType":"address"}],"stateMutability":"view"}],"bytecode":{"object":"0x61057761004d600b8282823980515f1a6073146041577f4e487b71000000000000000000000000000000000000000000000000000000005f525f60045260245ffd5b305f52607381538281f3fe7300000000000000000000000000000000000000003014608060405260043610610114575f3560e01c806351ab3888116100ab578063b6bbc3d41161007a578063b6bbc3d414610280578063b6e8b0d21461029e578063c1a287e2146102bc578063cea2a564146102da578063e3de8a52146102f857610114565b806351ab38881461020857806354ae258f146102265780635d4f194814610244578063aea9eff21461026257610114565b8063378de5c3116100e7578063378de5c3146101905780633cb46780146101ae578063416202cf146101cc5780634bf66352146101ea57610114565b806328145e31146101185780632e663652146101365780632f45c47b14610154578063372ee2c914610172575b5f5ffd5b610120610316565b60405161012d919061046e565b60405180910390f35b61013e61031d565b60405161014b919061049f565b60405180910390f35b61015c610323565b60405161016991906104f7565b60405180910390f35b61017a61033b565b60405161018791906104f7565b60405180910390f35b610198610353565b6040516101a591906104f7565b60405180910390f35b6101b661036b565b6040516101c391906104f7565b60405180910390f35b6101d4610383565b6040516101e191906104f7565b60405180910390f35b6101f261039b565b6040516101ff91906104f7565b60405180910390f35b6102106103b3565b60405161021d919061049f565b60405180910390f35b61022e6103b8565b60405161023b919061049f565b60405180910390f35b61024c6103bf565b6040516102599190610528565b60405180910390f35b61026a6103e5565b604051610277919061046e565b60405180910390f35b6102886103ec565b6040516102959190610528565b60405180910390f35b6102a6610412565b6040516102b3919061046e565b60405180910390f35b6102c4610419565b6040516102d1919061049f565b60405180910390f35b6102e261041e565b6040516102ef9190610528565b60405180910390f35b610300610444565b60405161030d919061049f565b60405180910390f35b622625a081565b6101f481565b73b0e49c5d0d05cbc241d68c05bc5ba1d1b7b7297681565b73779877a7b0d9e8603169ddbd7836e478b462478981565b73d7f86b4b8cae7d942340ff628f82735b7a20893a81565b739ddfaca8183c41ad55329bdeed9f6a8d53168b1b81565b73514910771af9ca656af840dff83e8264ecf986ca81565b736b0b234fb2f380309d47a7e9391e29e9a179395a81565b600181565b62aa36a781565b7f8077df514608a09f83e4e8d300645594e5d7234665448ba83f51a50f842bd3d95f1b81565b622625a081565b7f787d74caea10b2b357790d5b5247c2f63d1d91572a9846f780606e4d953677ae5f1b81565b622625a081565b600581565b7fd89b2bf150e3b9e13446986e571fb9cab24b13cea0a43ea20a6049a85cc807cc5f1b81565b670de0b6b3a764000081565b5f63ffffffff82169050919050565b61046881610450565b82525050565b5f6020820190506104815f83018461045f565b92915050565b5f819050919050565b61049981610487565b82525050565b5f6020820190506104b25f830184610490565b92915050565b5f73ffffffffffffffffffffffffffffffffffffffff82169050919050565b5f6104e1826104b8565b9050919050565b6104f1816104d7565b82525050565b5f60208201905061050a5f8301846104e8565b92915050565b5f819050919050565b61052281610510565b82525050565b5f60208201905061053b5f830184610519565b9291505056fea2646970667358221220730d90de0dd074b14221f745d2611adfbaa2c98d45b308b0c07ea03cc204d7fb64736f6c634300081e0033","linkReferences":{}},"methodIdentifiers":{"CALLBACK_GAS_LIMIT_ANVIL()":"28145e31","CALLBACK_GAS_LIMIT_ETHEREUM()":"b6e8b0d2","CALLBACK_GAS_LIMIT_SEPOLIA()":"aea9eff2","CHAIN_ID_ETHEREUM()":"51ab3888","CHAIN_ID_SEPOLIA()":"54ae258f","ENTRY_PRICE()":"e3de8a52","GRACE_PERIOD()":"c1a287e2","KEYHASH_ETHEREUM()":"5d4f1948","KEYHASH_LOCAL()":"cea2a564","KEYHASH_SEPOLIA()":"b6bbc3d4","LENGTH()":"2e663652","LINK_TOKEN_ADDRESS_ETHEREUM()":"416202cf","LINK_TOKEN_ADDRESS_SEPOLIA()":"372ee2c9","REGISTRAR_ADDRESS_ETHEREUM()":"4bf66352","REGISTRAR_ADDRESS_SEPOLIA()":"2f45c47b","VRF_COORDINATOR_V2_PLUS_ETHEREUM()":"378de5c3","VRF_COORDINATOR_V2_PLUS_SEPOLIA()":"3cb46780"},"id":56}