{"abi":[{"type":"function","name":"CALLBACK_GAS_LIMIT_ANVIL","inputs":[],"outputs":[{"name":"","type":"uint32","internalType":"uint32"}],"stateMutability":"view"},{"type":"function","name":"CALLBACK_GAS_LIMIT_ETHEREUM","inputs":[],"outputs":[{"name":"","type":"uint32","internalType":"uint32"}],"stateMutability":"view"},{"type":"function","name":"CALLBACK_GAS_LIMIT_SEPOLIA","inputs":[],"outputs":[{"name":"","type":"uint32","internalType":"uint32"}],"stateMutability":"view"},{"type":"function","name":"CHAIN_ID_ETHEREUM","inputs":[],"outputs":[{"name":"","type":"uint256","internalType":"uint256"}],"stateMutability":"view"},{"type":"function","name":"CHAIN_ID_SEPOLIA","inputs":[],"outputs":[{"name":"","type":"uint256","internalType":"uint256"}],"stateMutability":"view"},{"type":"function","name":"ENTRY_PRICE","inputs":[],"outputs":[{"name":"","type":"uint256","internalType":"uint256"}],"stateMutability":"view"},{"type":"function","name":"GRACE_PERIOD","inputs":[],"outputs":[{"name":"","type":"uint256","internalType":"uint256"}],"stateMutability":"view"},{"type":"function","name":"KEYHASH_ETHEREUM","inputs":[],"outputs":[{"name":"","type":"bytes32","internalType":"bytes32"}],"stateMutability":"view"},{"type":"function","name":"KEYHASH_LOCAL","inputs":[],"outputs":[{"name":"","type":"bytes32","internalType":"bytes32"}],"stateMutability":"view"},{"type":"function","name":"KEYHASH_SEPOLIA","inputs":[],"outputs":[{"name":"","type":"bytes32","internalType":"bytes32"}],"stateMutability":"view"},{"type":"function","name":"LENGTH","inputs":[],"outputs":[{"name":"","type":"uint256","internalType":"uint256"}],"stateMutability":"view"},{"type":"function","name":"LINK_TOKEN_ADDRESS_ETHEREUM","inputs":[],"outputs":[{"name":"","type":"address","internalType":"address"}],"stateMutability":"view"},{"type":"function","name":"LINK_TOKEN_ADDRESS_SEPOLIA","inputs":[],"outputs":[{"name":"","type":"address","internalType":"address"}],"stateMutability":"view"},{"type":"function","name":"MIN_LINK_AMOUNT","inputs":[],"outputs":[{"name":"","type":"uint256","internalType":"uint256"}],"stateMutability":"view"},{"type":"function","name":"REGISTRAR_ADDRESS_ETHEREUM","inputs":[],"outputs":[{"name":"","type":"address","internalType":"address"}],"stateMutability":"view"},{"type":"function","name":"REGISTRAR_ADDRESS_SEPOLIA","inputs":[],"outputs":[{"name":"","type":"address","internalType":"address"}],"stateMutability":"view"},{"type":"function","name":"VRF_COORDINATOR_V2_PLUS_ETHEREUM","inputs":[],"outputs":[{"name":"","type":"address","internalType":"address"}],"stateMutability":"view"},{"type":"function","name":"VRF_COORDINATOR_V2_PLUS_SEPOLIA","inputs":[],"outputs":[{"name":"","type":"address","internalType":"address"}],"stateMutability":"view"}],"bytecode":{"object":"0x6105a561004d600b8282823980515f1a6073146041577f4e487b71000000000000000000000000000000000000000000000000000000005f525f60045260245ffd5b305f52607381538281f3fe730000000000000000000000000000000000000000301460806040526004361061011f575f3560e01c806351ab3888116100ab578063b6bbc3d41161007a578063b6bbc3d4146102a9578063b6e8b0d2146102c7578063c1a287e2146102e5578063cea2a56414610303578063e3de8a52146103215761011f565b806351ab38881461023157806354ae258f1461024f5780635d4f19481461026d578063aea9eff21461028b5761011f565b8063372ee2c9116100f2578063372ee2c91461019b578063378de5c3146101b95780633cb46780146101d7578063416202cf146101f55780634bf66352146102135761011f565b8063129702ec1461012357806328145e31146101415780632e6636521461015f5780632f45c47b1461017d575b5f5ffd5b61012b61033f565b6040516101389190610496565b60405180910390f35b610149610344565b60405161015691906104cd565b60405180910390f35b61016761034b565b6040516101749190610496565b60405180910390f35b610185610351565b6040516101929190610525565b60405180910390f35b6101a3610369565b6040516101b09190610525565b60405180910390f35b6101c1610381565b6040516101ce9190610525565b60405180910390f35b6101df610399565b6040516101ec9190610525565b60405180910390f35b6101fd6103b1565b60405161020a9190610525565b60405180910390f35b61021b6103c9565b6040516102289190610525565b60405180910390f35b6102396103e1565b6040516102469190610496565b60405180910390f35b6102576103e6565b6040516102649190610496565b60405180910390f35b6102756103ed565b6040516102829190610556565b60405180910390f35b610293610413565b6040516102a091906104cd565b60405180910390f35b6102b161041a565b6040516102be9190610556565b60405180910390f35b6102cf610440565b6040516102dc91906104cd565b60405180910390f35b6102ed610447565b6040516102fa9190610496565b60405180910390f35b61030b61044c565b6040516103189190610556565b60405180910390f35b610329610472565b6040516103369190610496565b60405180910390f35b600581565b622625a081565b6101f481565b73b0e49c5d0d05cbc241d68c05bc5ba1d1b7b7297681565b73779877a7b0d9e8603169ddbd7836e478b462478981565b73d7f86b4b8cae7d942340ff628f82735b7a20893a81565b739ddfaca8183c41ad55329bdeed9f6a8d53168b1b81565b73514910771af9ca656af840dff83e8264ecf986ca81565b736b0b234fb2f380309d47a7e9391e29e9a179395a81565b600181565b62aa36a781565b7f8077df514608a09f83e4e8d300645594e5d7234665448ba83f51a50f842bd3d95f1b81565b622625a081565b7f787d74caea10b2b357790d5b5247c2f63d1d91572a9846f780606e4d953677ae5f1b81565b622625a081565b600581565b7fd89b2bf150e3b9e13446986e571fb9cab24b13cea0a43ea20a6049a85cc807cc5f1b81565b670de0b6b3a764000081565b5f819050919050565b6104908161047e565b82525050565b5f6020820190506104a95f830184610487565b92915050565b5f63ffffffff82169050919050565b6104c7816104af565b82525050565b5f6020820190506104e05f8301846104be565b92915050565b5f73ffffffffffffffffffffffffffffffffffffffff82169050919050565b5f61050f826104e6565b9050919050565b61051f81610505565b82525050565b5f6020820190506105385f830184610516565b92915050565b5f819050919050565b6105508161053e565b82525050565b5f6020820190506105695f830184610547565b9291505056fea26469706673582212204913d0a7bf8af987f78dee7252384edfcb65013432e654bc9c1180b3dc9111c964736f6c634300081e0033","linkReferences":{}},"methodIdentifiers":{"CALLBACK_GAS_LIMIT_ANVIL()":"28145e31","CALLBACK_GAS_LIMIT_ETHEREUM()":"b6e8b0d2","CALLBACK_GAS_LIMIT_SEPOLIA()":"aea9eff2","CHAIN_ID_ETHEREUM()":"51ab3888","CHAIN_ID_SEPOLIA()":"54ae258f","ENTRY_PRICE()":"e3de8a52","GRACE_PERIOD()":"c1a287e2","KEYHASH_ETHEREUM()":"5d4f1948","KEYHASH_LOCAL()":"cea2a564","KEYHASH_SEPOLIA()":"b6bbc3d4","LENGTH()":"2e663652","LINK_TOKEN_ADDRESS_ETHEREUM()":"416202cf","LINK_TOKEN_ADDRESS_SEPOLIA()":"372ee2c9","MIN_LINK_AMOUNT()":"129702ec","REGISTRAR_ADDRESS_ETHEREUM()":"4bf66352","REGISTRAR_ADDRESS_SEPOLIA()":"2f45c47b","VRF_COORDINATOR_V2_PLUS_ETHEREUM()":"378de5c3","VRF_COORDINATOR_V2_PLUS_SEPOLIA()":"3cb46780"},"id":56}