{"abi":[{"type":"function","name":"AUTOMATION_ETHEREUM","inputs":[],"outputs":[{"name":"","type":"address","internalType":"address"}],"stateMutability":"view"},{"type":"function","name":"AUTOMATION_SEPOLIA","inputs":[],"outputs":[{"name":"","type":"address","internalType":"address"}],"stateMutability":"view"},{"type":"function","name":"ENTRY_PRICE","inputs":[],"outputs":[{"name":"","type":"uint256","internalType":"uint256"}],"stateMutability":"view"},{"type":"function","name":"ETHEREUM_CHAIN_ID","inputs":[],"outputs":[{"name":"","type":"uint256","internalType":"uint256"}],"stateMutability":"view"},{"type":"function","name":"GAS_LIMIT","inputs":[],"outputs":[{"name":"","type":"uint32","internalType":"uint32"}],"stateMutability":"view"},{"type":"function","name":"GRACE_PERIOD","inputs":[],"outputs":[{"name":"","type":"uint256","internalType":"uint256"}],"stateMutability":"view"},{"type":"function","name":"LENGTH","inputs":[],"outputs":[{"name":"","type":"uint256","internalType":"uint256"}],"stateMutability":"view"},{"type":"function","name":"LINK_TOKEN_ETHEREUM","inputs":[],"outputs":[{"name":"","type":"address","internalType":"address"}],"stateMutability":"view"},{"type":"function","name":"LINK_TOKEN_SEPOLIA","inputs":[],"outputs":[{"name":"","type":"address","internalType":"address"}],"stateMutability":"view"},{"type":"function","name":"SEPOLIA_CHAIN_ID","inputs":[],"outputs":[{"name":"","type":"uint256","internalType":"uint256"}],"stateMutability":"view"}],"bytecode":{"object":"0x61035061004d600b8282823980515f1a6073146041577f4e487b71000000000000000000000000000000000000000000000000000000005f525f60045260245ffd5b305f52607381538281f3fe73000000000000000000000000000000000000000030146080604052600436106100a7575f3560e01c80632e6636521161006f5780632e663652146101415780638c6521021461015f5780639db1e6051461017d578063c1a287e21461019b578063e3de8a52146101b9576100a7565b8063091d2788146100ab57806314bf3d93146100c95780631dac56d3146100e75780632349302d146101055780632c76ff6714610123575b5f5ffd5b6100b36101d7565b6040516100c09190610278565b60405180910390f35b6100d16101de565b6040516100de91906102d0565b60405180910390f35b6100ef6101f6565b6040516100fc9190610301565b60405180910390f35b61010d6101fb565b60405161011a91906102d0565b60405180910390f35b61012b610213565b60405161013891906102d0565b60405180910390f35b61014961022b565b6040516101569190610301565b60405180910390f35b610167610230565b60405161017491906102d0565b60405180910390f35b610185610248565b6040516101929190610301565b60405180910390f35b6101a3610250565b6040516101b09190610301565b60405180910390f35b6101c1610255565b6040516101ce9190610301565b60405180910390f35b6207a12081565b73779877a7b0d9e8603169ddbd7836e478b462478981565b600181565b7386efbd0b6736bed994962f9797049422a3a8e8ad81565b736593c7de001fc8542bb1703532ee1e5aa0d458fd81565b600681565b73514910771af9ca656af840dff83e8264ecf986ca81565b6306a6322781565b600181565b600181565b5f63ffffffff82169050919050565b6102728161025a565b82525050565b5f60208201905061028b5f830184610269565b92915050565b5f73ffffffffffffffffffffffffffffffffffffffff82169050919050565b5f6102ba82610291565b9050919050565b6102ca816102b0565b82525050565b5f6020820190506102e35f8301846102c1565b92915050565b5f819050919050565b6102fb816102e9565b82525050565b5f6020820190506103145f8301846102f2565b9291505056fea26469706673582212208dbc0a7ac7b59d1153d0f192268d5a0a816e65d0d00e82afa026eed7378f9ec764736f6c634300081e0033","linkReferences":{}},"methodIdentifiers":{"AUTOMATION_ETHEREUM()":"2c76ff67","AUTOMATION_SEPOLIA()":"2349302d","ENTRY_PRICE()":"e3de8a52","ETHEREUM_CHAIN_ID()":"1dac56d3","GAS_LIMIT()":"091d2788","GRACE_PERIOD()":"c1a287e2","LENGTH()":"2e663652","LINK_TOKEN_ETHEREUM()":"8c652102","LINK_TOKEN_SEPOLIA()":"14bf3d93","SEPOLIA_CHAIN_ID()":"9db1e605"},"id":25}