{"abi":[{"type":"constructor","inputs":[{"name":"entryPrice","type":"uint256","internalType":"uint256"},{"name":"length","type":"uint256","internalType":"uint256"},{"name":"gracePeriod","type":"uint256","internalType":"uint256"}],"stateMutability":"nonpayable"},{"type":"function","name":"enterLottery","inputs":[],"outputs":[],"stateMutability":"payable"},{"type":"function","name":"entryDeadline","inputs":[],"outputs":[{"name":"","type":"uint256","internalType":"uint256"}],"stateMutability":"view"},{"type":"function","name":"getTotalPlayers","inputs":[],"outputs":[{"name":"","type":"uint256","internalType":"uint256"}],"stateMutability":"view"},{"type":"function","name":"get_winner_address","inputs":[],"outputs":[{"name":"","type":"address","internalType":"address"}],"stateMutability":"view"},{"type":"function","name":"i_entryPrice","inputs":[],"outputs":[{"name":"","type":"uint256","internalType":"uint256"}],"stateMutability":"view"},{"type":"function","name":"i_gracePeriod","inputs":[],"outputs":[{"name":"","type":"uint256","internalType":"uint256"}],"stateMutability":"view"},{"type":"function","name":"i_length","inputs":[],"outputs":[{"name":"","type":"uint256","internalType":"uint256"}],"stateMutability":"view"},{"type":"function","name":"isLotteryOver","inputs":[],"outputs":[{"name":"","type":"bool","internalType":"bool"}],"stateMutability":"view"},{"type":"function","name":"payWinner","inputs":[],"outputs":[],"stateMutability":"nonpayable"},{"type":"function","name":"pickWinnerDeadline","inputs":[],"outputs":[{"name":"","type":"uint256","internalType":"uint256"}],"stateMutability":"view"},{"type":"function","name":"players","inputs":[{"name":"","type":"uint256","internalType":"uint256"}],"outputs":[{"name":"","type":"address","internalType":"address"}],"stateMutability":"view"},{"type":"function","name":"winnerFallbackWithdrawal","inputs":[],"outputs":[],"stateMutability":"nonpayable"},{"type":"event","name":"NewLotteryStarted","inputs":[],"anonymous":false},{"type":"event","name":"WinnerInvalidPayment","inputs":[{"name":"winner","type":"address","indexed":true,"internalType":"address"},{"name":"price","type":"uint256","indexed":false,"internalType":"uint256"}],"anonymous":false},{"type":"event","name":"WinnerPaidPrice","inputs":[{"name":"winner","type":"address","indexed":true,"internalType":"address"},{"name":"price","type":"uint256","indexed":false,"internalType":"uint256"}],"anonymous":false},{"type":"event","name":"WinnerWithdrawnPrice","inputs":[{"name":"winner","type":"address","indexed":true,"internalType":"address"},{"name":"price","type":"uint256","indexed":false,"internalType":"uint256"}],"anonymous":false},{"type":"error","name":"Lottery__alreadyEnded","inputs":[]},{"type":"error","name":"Lottery__invalidPrice","inputs":[{"name":"amount","type":"uint256","internalType":"uint256"}]},{"type":"error","name":"Lottery__noWinningsToWithdraw","inputs":[]},{"type":"error","name":"Lottery__notEnoughPlayers","inputs":[]},{"type":"error","name":"Lottery__notOver","inputs":[]}],"bytecode":{"object":"0x60e060405234801561000f575f5ffd5b506040516110a13803806110a1833981810160405281019061003191906101f6565b60015f8190555082608081815250508160a081815250508060c0818152505061005e61006660201b60201c565b5050506102d3565b5f67ffffffffffffffff8111156100805761007f610246565b5b6040519080825280602002602001820160405280156100ae5781602001602082028036833780820191505090505b50600390805190602001906100c492919061011d565b5060a051426100d391906102a0565b60018190555060c0516001546100e991906102a0565b6002819055507f2db4a3713e1daee7dea817d553d7683357fd40ff84e087b2c26fad9b4f8904b960405160405180910390a1565b828054828255905f5260205f20908101928215610193579160200282015b82811115610192578251825f6101000a81548173ffffffffffffffffffffffffffffffffffffffff021916908373ffffffffffffffffffffffffffffffffffffffff1602179055509160200191906001019061013b565b5b5090506101a091906101a4565b5090565b5b808211156101bb575f815f9055506001016101a5565b5090565b5f5ffd5b5f819050919050565b6101d5816101c3565b81146101df575f5ffd5b50565b5f815190506101f0816101cc565b92915050565b5f5f5f6060848603121561020d5761020c6101bf565b5b5f61021a868287016101e2565b935050602061022b868287016101e2565b925050604061023c868287016101e2565b9150509250925092565b7f4e487b71000000000000000000000000000000000000000000000000000000005f52604160045260245ffd5b7f4e487b71000000000000000000000000000000000000000000000000000000005f52601160045260245ffd5b5f6102aa826101c3565b91506102b5836101c3565b92508282019050808211156102cd576102cc610273565b5b92915050565b60805160a05160c051610d886103195f395f81816102db01526108fc01525f81816102b701526108ca01525f818161035701528181610501015261069a0152610d885ff3fe6080604052600436106100a6575f3560e01c8063be71248a11610063578063be71248a146101a6578063c1af5785146101bc578063cb83b1d0146101c6578063e9a20c9e146101f0578063f71d96cb1461021a578063f94ef2eb14610256576100a6565b806304638002146100aa5780631918de3d146100d45780634529cae7146100fe57806352e4b395146101285780636a81dbce14610152578063b145a1281461017c575b5f5ffd5b3480156100b5575f5ffd5b506100be61026c565b6040516100cb9190610a44565b60405180910390f35b3480156100df575f5ffd5b506100e8610272565b6040516100f59190610a44565b60405180910390f35b348015610109575f5ffd5b50610112610278565b60405161011f9190610a44565b60405180910390f35b348015610133575f5ffd5b5061013c610284565b6040516101499190610a77565b60405180910390f35b34801561015d575f5ffd5b506101666102b5565b6040516101739190610a44565b60405180910390f35b348015610187575f5ffd5b506101906102d9565b60405161019d9190610a44565b60405180910390f35b3480156101b1575f5ffd5b506101ba6102fd565b005b6101c46104ff565b005b3480156101d1575f5ffd5b506101da610600565b6040516101e79190610acf565b60405180910390f35b3480156101fb575f5ffd5b50610204610698565b6040516102119190610a44565b60405180910390f35b348015610225575f5ffd5b50610240600480360381019061023b9190610b16565b6106bc565b60405161024d9190610acf565b60405180910390f35b348015610261575f5ffd5b5061026a6106f7565b005b60015481565b60025481565b5f600380549050905090565b5f5f600380549050905060025442108061029e5750600281105b156102ac575f9150506102b2565b60019150505b90565b7f000000000000000000000000000000000000000000000000000000000000000081565b7f000000000000000000000000000000000000000000000000000000000000000081565b61030561081c565b5f1515610310610284565b151503610349576040517f357ff6fd00000000000000000000000000000000000000000000000000000000815260040160405180910390fd5b5f610352610600565b90505f7f00000000000000000000000000000000000000000000000000000000000000006003805490506103869190610b6e565b9050610390610869565b5f8273ffffffffffffffffffffffffffffffffffffffff16826040516103b590610bdc565b5f6040518083038185875af1925050503d805f81146103ef576040519150601f19603f3d011682016040523d82523d5f602084013e6103f4565b606091505b50509050806104a3578160045f8573ffffffffffffffffffffffffffffffffffffffff1673ffffffffffffffffffffffffffffffffffffffff1681526020019081526020015f205f8282546104499190610bf0565b925050819055508273ffffffffffffffffffffffffffffffffffffffff167f0914d3724cbf701c5c1fef489c7dd58322ee151dee11ce3a5a4250ac0d78f2b9836040516104969190610a44565b60405180910390a26104f2565b8273ffffffffffffffffffffffffffffffffffffffff167f2484230f0b6c3baaaaded54a003c0ff9b2749ab658a62dd15351c1f28c6bdd53836040516104e99190610a44565b60405180910390a25b5050506104fd61095c565b565b7f0000000000000000000000000000000000000000000000000000000000000000341461056357346040517f26294cab00000000000000000000000000000000000000000000000000000000815260040161055a9190610a44565b60405180910390fd5b600154421061059e576040517f61024c0c00000000000000000000000000000000000000000000000000000000815260040160405180910390fd5b600333908060018154018082558091505060019003905f5260205f20015f9091909190916101000a81548173ffffffffffffffffffffffffffffffffffffffff021916908373ffffffffffffffffffffffffffffffffffffffff160217905550565b5f60026003805490501015610641576040517f010d7aef00000000000000000000000000000000000000000000000000000000815260040160405180910390fd5b60038080549050610650610965565b61065a9190610c50565b8154811061066b5761066a610c80565b5b905f5260205f20015f9054906101000a900473ffffffffffffffffffffffffffffffffffffffff16905090565b7f000000000000000000000000000000000000000000000000000000000000000081565b600381815481106106cb575f80fd5b905f5260205f20015f915054906101000a900473ffffffffffffffffffffffffffffffffffffffff1681565b6106ff61081c565b5f60045f3373ffffffffffffffffffffffffffffffffffffffff1673ffffffffffffffffffffffffffffffffffffffff1681526020019081526020015f205490505f8103610779576040517fe549ae8200000000000000000000000000000000000000000000000000000000815260040160405180910390fd5b60045f3373ffffffffffffffffffffffffffffffffffffffff1673ffffffffffffffffffffffffffffffffffffffff1681526020019081526020015f205f90556107c3338261096d565b3373ffffffffffffffffffffffffffffffffffffffff167f31d3317f3f01e2af0b51f534c26c80a0d0df88e2aac167c1e018de3172914c7e826040516108099190610a44565b60405180910390a25061081a61095c565b565b60025f5403610860576040517f08c379a000000000000000000000000000000000000000000000000000000000815260040161085790610d07565b60405180910390fd5b60025f81905550565b5f67ffffffffffffffff81111561088357610882610d25565b5b6040519080825280602002602001820160405280156108b15781602001602082028036833780820191505090505b50600390805190602001906108c792919061098a565b507f0000000000000000000000000000000000000000000000000000000000000000426108f49190610bf0565b6001819055507f00000000000000000000000000000000000000000000000000000000000000006001546109289190610bf0565b6002819055507f2db4a3713e1daee7dea817d553d7683357fd40ff84e087b2c26fad9b4f8904b960405160405180910390a1565b60015f81905550565b5f6005905090565b5f385f3884865af16109865763b12d13eb5f526004601cfd5b5050565b828054828255905f5260205f20908101928215610a00579160200282015b828111156109ff578251825f6101000a81548173ffffffffffffffffffffffffffffffffffffffff021916908373ffffffffffffffffffffffffffffffffffffffff160217905550916020019190600101906109a8565b5b509050610a0d9190610a11565b5090565b5b80821115610a28575f815f905550600101610a12565b5090565b5f819050919050565b610a3e81610a2c565b82525050565b5f602082019050610a575f830184610a35565b92915050565b5f8115159050919050565b610a7181610a5d565b82525050565b5f602082019050610a8a5f830184610a68565b92915050565b5f73ffffffffffffffffffffffffffffffffffffffff82169050919050565b5f610ab982610a90565b9050919050565b610ac981610aaf565b82525050565b5f602082019050610ae25f830184610ac0565b92915050565b5f5ffd5b610af581610a2c565b8114610aff575f5ffd5b50565b5f81359050610b1081610aec565b92915050565b5f60208284031215610b2b57610b2a610ae8565b5b5f610b3884828501610b02565b91505092915050565b7f4e487b71000000000000000000000000000000000000000000000000000000005f52601160045260245ffd5b5f610b7882610a2c565b9150610b8383610a2c565b9250828202610b9181610a2c565b91508282048414831517610ba857610ba7610b41565b5b5092915050565b5f81905092915050565b50565b5f610bc75f83610baf565b9150610bd282610bb9565b5f82019050919050565b5f610be682610bbc565b9150819050919050565b5f610bfa82610a2c565b9150610c0583610a2c565b9250828201905080821115610c1d57610c1c610b41565b5b92915050565b7f4e487b71000000000000000000000000000000000000000000000000000000005f52601260045260245ffd5b5f610c5a82610a2c565b9150610c6583610a2c565b925082610c7557610c74610c23565b5b828206905092915050565b7f4e487b71000000000000000000000000000000000000000000000000000000005f52603260045260245ffd5b5f82825260208201905092915050565b7f5265656e7472616e637947756172643a207265656e7472616e742063616c6c005f82015250565b5f610cf1601f83610cad565b9150610cfc82610cbd565b602082019050919050565b5f6020820190508181035f830152610d1e81610ce5565b9050919050565b7f4e487b71000000000000000000000000000000000000000000000000000000005f52604160045260245ffdfea2646970667358221220f974fe22bf697cf1eb1ec5544fb50b7f9b5cfe42e47ddba6f48e2067bb81d37b64736f6c634300081e0033","linkReferences":{}},"methodIdentifiers":{"enterLottery()":"c1af5785","entryDeadline()":"04638002","getTotalPlayers()":"4529cae7","get_winner_address()":"cb83b1d0","i_entryPrice()":"e9a20c9e","i_gracePeriod()":"b145a128","i_length()":"6a81dbce","isLotteryOver()":"52e4b395","payWinner()":"be71248a","pickWinnerDeadline()":"1918de3d","players(uint256)":"f71d96cb","winnerFallbackWithdrawal()":"f94ef2eb"},"id":24}