{"abi":[{"type":"constructor","inputs":[{"name":"entryPrice","type":"uint256","internalType":"uint256"},{"name":"length","type":"uint256","internalType":"uint256"},{"name":"gracePeriod","type":"uint256","internalType":"uint256"},{"name":"link_token_contract","type":"address","internalType":"address"},{"name":"vrfCoordinatorV2Plus","type":"address","internalType":"address"},{"name":"keyHash","type":"bytes32","internalType":"bytes32"},{"name":"callbackGasLimit","type":"uint32","internalType":"uint32"},{"name":"requestConfirmations","type":"uint16","internalType":"uint16"},{"name":"numWords","type":"uint32","internalType":"uint32"}],"stateMutability":"nonpayable"},{"type":"function","name":"acceptOwnership","inputs":[],"outputs":[],"stateMutability":"nonpayable"},{"type":"function","name":"addConsumer","inputs":[{"name":"consumerAddress","type":"address","internalType":"address"}],"outputs":[],"stateMutability":"nonpayable"},{"type":"function","name":"cancelSubscription","inputs":[{"name":"receivingWallet","type":"address","internalType":"address"}],"outputs":[],"stateMutability":"nonpayable"},{"type":"function","name":"checkUpkeep","inputs":[{"name":"","type":"bytes","internalType":"bytes"}],"outputs":[{"name":"","type":"bool","internalType":"bool"},{"name":"","type":"bytes","internalType":"bytes"}],"stateMutability":"view"},{"type":"function","name":"enterLottery","inputs":[],"outputs":[],"stateMutability":"payable"},{"type":"function","name":"getEntryDeadline","inputs":[],"outputs":[{"name":"","type":"uint256","internalType":"uint256"}],"stateMutability":"view"},{"type":"function","name":"getPickWinnerDeadline","inputs":[],"outputs":[{"name":"","type":"uint256","internalType":"uint256"}],"stateMutability":"view"},{"type":"function","name":"getTotalPlayers","inputs":[],"outputs":[{"name":"","type":"uint256","internalType":"uint256"}],"stateMutability":"view"},{"type":"function","name":"i_entryPrice","inputs":[],"outputs":[{"name":"","type":"uint256","internalType":"uint256"}],"stateMutability":"view"},{"type":"function","name":"i_gracePeriod","inputs":[],"outputs":[{"name":"","type":"uint256","internalType":"uint256"}],"stateMutability":"view"},{"type":"function","name":"i_length","inputs":[],"outputs":[{"name":"","type":"uint256","internalType":"uint256"}],"stateMutability":"view"},{"type":"function","name":"isLotteryOver","inputs":[],"outputs":[{"name":"","type":"bool","internalType":"bool"}],"stateMutability":"view"},{"type":"function","name":"owner","inputs":[],"outputs":[{"name":"","type":"address","internalType":"address"}],"stateMutability":"view"},{"type":"function","name":"performUpkeep","inputs":[{"name":"","type":"bytes","internalType":"bytes"}],"outputs":[],"stateMutability":"nonpayable"},{"type":"function","name":"rawFulfillRandomWords","inputs":[{"name":"requestId","type":"uint256","internalType":"uint256"},{"name":"randomWords","type":"uint256[]","internalType":"uint256[]"}],"outputs":[],"stateMutability":"nonpayable"},{"type":"function","name":"removeConsumer","inputs":[{"name":"consumerAddress","type":"address","internalType":"address"}],"outputs":[],"stateMutability":"nonpayable"},{"type":"function","name":"s_randomWords","inputs":[{"name":"","type":"uint256","internalType":"uint256"}],"outputs":[{"name":"","type":"uint256","internalType":"uint256"}],"stateMutability":"view"},{"type":"function","name":"s_requestId","inputs":[],"outputs":[{"name":"","type":"uint256","internalType":"uint256"}],"stateMutability":"view"},{"type":"function","name":"s_subscriptionId","inputs":[],"outputs":[{"name":"","type":"uint256","internalType":"uint256"}],"stateMutability":"view"},{"type":"function","name":"s_vrfCoordinator","inputs":[],"outputs":[{"name":"","type":"address","internalType":"contract IVRFCoordinatorV2Plus"}],"stateMutability":"view"},{"type":"function","name":"setCoordinator","inputs":[{"name":"_vrfCoordinator","type":"address","internalType":"address"}],"outputs":[],"stateMutability":"nonpayable"},{"type":"function","name":"transferOwnership","inputs":[{"name":"to","type":"address","internalType":"address"}],"outputs":[],"stateMutability":"nonpayable"},{"type":"function","name":"winnerFallbackWithdrawal","inputs":[],"outputs":[],"stateMutability":"nonpayable"},{"type":"function","name":"withdraw","inputs":[{"name":"amount","type":"uint256","internalType":"uint256"},{"name":"to","type":"address","internalType":"address"}],"outputs":[],"stateMutability":"nonpayable"},{"type":"event","name":"CoordinatorSet","inputs":[{"name":"vrfCoordinator","type":"address","indexed":false,"internalType":"address"}],"anonymous":false},{"type":"event","name":"OwnershipTransferRequested","inputs":[{"name":"from","type":"address","indexed":true,"internalType":"address"},{"name":"to","type":"address","indexed":true,"internalType":"address"}],"anonymous":false},{"type":"event","name":"OwnershipTransferred","inputs":[{"name":"from","type":"address","indexed":true,"internalType":"address"},{"name":"to","type":"address","indexed":true,"internalType":"address"}],"anonymous":false},{"type":"event","name":"WinnerInvalidPayment","inputs":[{"name":"winner","type":"address","indexed":true,"internalType":"address"},{"name":"price","type":"uint256","indexed":false,"internalType":"uint256"}],"anonymous":false},{"type":"event","name":"WinnerPaidPrice","inputs":[{"name":"winner","type":"address","indexed":true,"internalType":"address"},{"name":"price","type":"uint256","indexed":false,"internalType":"uint256"}],"anonymous":false},{"type":"event","name":"WinnerWithdrawnPrice","inputs":[{"name":"winner","type":"address","indexed":true,"internalType":"address"},{"name":"price","type":"uint256","indexed":false,"internalType":"uint256"}],"anonymous":false},{"type":"error","name":"Lottery__alreadyEnded","inputs":[]},{"type":"error","name":"Lottery__invalidPrice","inputs":[{"name":"amount","type":"uint256","internalType":"uint256"}]},{"type":"error","name":"Lottery__noWinningsToWithdraw","inputs":[]},{"type":"error","name":"Lottery__notEnoughPlayers","inputs":[]},{"type":"error","name":"Lottery__notOver","inputs":[]},{"type":"error","name":"OnlyCoordinatorCanFulfill","inputs":[{"name":"have","type":"address","internalType":"address"},{"name":"want","type":"address","internalType":"address"}]},{"type":"error","name":"OnlyOwnerOrCoordinator","inputs":[{"name":"have","type":"address","internalType":"address"},{"name":"owner","type":"address","internalType":"address"},{"name":"coordinator","type":"address","internalType":"address"}]},{"type":"error","name":"ZeroAddress","inputs":[]}],"bytecode":{"object":"0x610180604052600361ffff1660e09061ffff16815250600263ffffffff166101009063ffffffff16815250348015610035575f5ffd5b50604051612db5380380612db58339818101604052810190610057919061087d565b8486858585858533805f60015f819055505f73ffffffffffffffffffffffffffffffffffffffff168273ffffffffffffffffffffffffffffffffffffffff16036100d6576040517f08c379a00000000000000000000000000000000000000000000000000000000081526004016100cd9061099b565b60405180910390fd5b8160015f6101000a81548173ffffffffffffffffffffffffffffffffffffffff021916908373ffffffffffffffffffffffffffffffffffffffff1602179055505f73ffffffffffffffffffffffffffffffffffffffff168173ffffffffffffffffffffffffffffffffffffffff1614610159576101588161031260201b60201c565b5b5050505f73ffffffffffffffffffffffffffffffffffffffff168173ffffffffffffffffffffffffffffffffffffffff16036101c1576040517fd92e233d00000000000000000000000000000000000000000000000000000000815260040160405180910390fd5b8060035f6101000a81548173ffffffffffffffffffffffffffffffffffffffff021916908373ffffffffffffffffffffffffffffffffffffffff160217905550508560035f6101000a81548173ffffffffffffffffffffffffffffffffffffffff021916908373ffffffffffffffffffffffffffffffffffffffff1602179055508473ffffffffffffffffffffffffffffffffffffffff1660808173ffffffffffffffffffffffffffffffffffffffff16815250508360a081815250508263ffffffff1660c08163ffffffff16815250508161ffff1660e08161ffff16815250508063ffffffff166101008163ffffffff16815250506102c561043e60201b60201c565b5050505050508861012081815250508761014081815250508661016081815250506102f6600561056e60201b60201c565b61030461064160201b60201c565b505050505050505050610c7e565b3373ffffffffffffffffffffffffffffffffffffffff168173ffffffffffffffffffffffffffffffffffffffff1603610380576040517f08c379a000000000000000000000000000000000000000000000000000000000815260040161037790610a03565b60405180910390fd5b8060025f6101000a81548173ffffffffffffffffffffffffffffffffffffffff021916908373ffffffffffffffffffffffffffffffffffffffff1602179055508073ffffffffffffffffffffffffffffffffffffffff1660015f9054906101000a900473ffffffffffffffffffffffffffffffffffffffff1673ffffffffffffffffffffffffffffffffffffffff167fed8889f560326eb138920d842192f0eb3dd22b4f139c87a2c57538e05bae127860405160405180910390a350565b61044c61067f60201b60201c565b60035f9054906101000a900473ffffffffffffffffffffffffffffffffffffffff1673ffffffffffffffffffffffffffffffffffffffff1663a21a23e46040518163ffffffff1660e01b81526004016020604051808303815f875af11580156104b7573d5f5f3e3d5ffd5b505050506040513d601f19601f820116820180604052508101906104db9190610a21565b60078190555060035f9054906101000a900473ffffffffffffffffffffffffffffffffffffffff1673ffffffffffffffffffffffffffffffffffffffff1663bec4c08c600754306040518363ffffffff1660e01b815260040161053f929190610a6a565b5f604051808303815f87803b158015610556575f5ffd5b505af1158015610568573d5f5f3e3d5ffd5b50505050565b61057c61067f60201b60201c565b60805173ffffffffffffffffffffffffffffffffffffffff16634000aea060035f9054906101000a900473ffffffffffffffffffffffffffffffffffffffff16836007546040516020016105d09190610a91565b6040516020818303038152906040526040518463ffffffff1660e01b81526004016105fd93929190610b1a565b6020604051808303815f875af1158015610619573d5f5f3e3d5ffd5b505050506040513d601f19601f8201168201806040525081019061063d9190610b8b565b5050565b600e5f61064e9190610710565b5f610140514261065e9190610be3565b9050610160518161066f9190610be3565b6009819055508060088190555050565b60015f9054906101000a900473ffffffffffffffffffffffffffffffffffffffff1673ffffffffffffffffffffffffffffffffffffffff163373ffffffffffffffffffffffffffffffffffffffff161461070e576040517f08c379a000000000000000000000000000000000000000000000000000000000815260040161070590610c60565b60405180910390fd5b565b5080545f8255905f5260205f209081019061072b919061072e565b50565b5b80821115610745575f815f90555060010161072f565b5090565b5f5ffd5b5f819050919050565b61075f8161074d565b8114610769575f5ffd5b50565b5f8151905061077a81610756565b92915050565b5f73ffffffffffffffffffffffffffffffffffffffff82169050919050565b5f6107a982610780565b9050919050565b6107b98161079f565b81146107c3575f5ffd5b50565b5f815190506107d4816107b0565b92915050565b5f819050919050565b6107ec816107da565b81146107f6575f5ffd5b50565b5f81519050610807816107e3565b92915050565b5f63ffffffff82169050919050565b6108258161080d565b811461082f575f5ffd5b50565b5f815190506108408161081c565b92915050565b5f61ffff82169050919050565b61085c81610846565b8114610866575f5ffd5b50565b5f8151905061087781610853565b92915050565b5f5f5f5f5f5f5f5f5f6101208a8c03121561089b5761089a610749565b5b5f6108a88c828d0161076c565b99505060206108b98c828d0161076c565b98505060406108ca8c828d0161076c565b97505060606108db8c828d016107c6565b96505060806108ec8c828d016107c6565b95505060a06108fd8c828d016107f9565b94505060c061090e8c828d01610832565b93505060e061091f8c828d01610869565b9250506101006109318c828d01610832565b9150509295985092959850929598565b5f82825260208201905092915050565b7f43616e6e6f7420736574206f776e657220746f207a65726f00000000000000005f82015250565b5f610985601883610941565b915061099082610951565b602082019050919050565b5f6020820190508181035f8301526109b281610979565b9050919050565b7f43616e6e6f74207472616e7366657220746f2073656c660000000000000000005f82015250565b5f6109ed601783610941565b91506109f8826109b9565b602082019050919050565b5f6020820190508181035f830152610a1a816109e1565b9050919050565b5f60208284031215610a3657610a35610749565b5b5f610a438482850161076c565b91505092915050565b610a558161074d565b82525050565b610a648161079f565b82525050565b5f604082019050610a7d5f830185610a4c565b610a8a6020830184610a5b565b9392505050565b5f602082019050610aa45f830184610a4c565b92915050565b5f81519050919050565b5f82825260208201905092915050565b8281835e5f83830152505050565b5f601f19601f8301169050919050565b5f610aec82610aaa565b610af68185610ab4565b9350610b06818560208601610ac4565b610b0f81610ad2565b840191505092915050565b5f606082019050610b2d5f830186610a5b565b610b3a6020830185610a4c565b8181036040830152610b4c8184610ae2565b9050949350505050565b5f8115159050919050565b610b6a81610b56565b8114610b74575f5ffd5b50565b5f81519050610b8581610b61565b92915050565b5f60208284031215610ba057610b9f610749565b5b5f610bad84828501610b77565b91505092915050565b7f4e487b71000000000000000000000000000000000000000000000000000000005f52601160045260245ffd5b5f610bed8261074d565b9150610bf88361074d565b9250828201905080821115610c1057610c0f610bb6565b5b92915050565b7f4f6e6c792063616c6c61626c65206279206f776e6572000000000000000000005f82015250565b5f610c4a601683610941565b9150610c5582610c16565b602082019050919050565b5f6020820190508181035f830152610c7781610c3e565b9050919050565b60805160a05160c05160e051610100516101205161014051610160516120c0610cf55f395f8181610ce1015261157801525f8181610831015261154a01525f8181610d0501528181610e1501526110d201525f61134701525f6112f101525f61131b01525f6112c301525f61051401526120c05ff3fe608060405260043610610149575f3560e01c80638da5cb5b116100b5578063ccd2ef421161006e578063ccd2ef4214610412578063e89e106a1461043c578063e9a20c9e14610466578063f2fde38b14610490578063f6eaffc8146104b8578063f94ef2eb146104f457610149565b80638da5cb5b1461033a5780638ea981171461036457806393d81d581461038c5780639eccacf6146103b4578063b145a128146103de578063c1af57851461040857610149565b806352e4b3951161010757806352e4b3951461023f5780636a81dbce146102695780636d6a430e146102935780636e04ff0d146102bd57806379ba5097146102fa5780638ac000211461031057610149565b8062f714ce1461014d5780630e27e3df14610175578063112940f91461019d5780631fe543e3146101c55780634529cae7146101ed5780634585e33b14610217575b5f5ffd5b348015610158575f5ffd5b50610173600480360381019061016e9190611718565b61050a565b005b348015610180575f5ffd5b5061019b60048036038101906101969190611756565b6105b2565b005b3480156101a8575f5ffd5b506101c360048036038101906101be9190611756565b610648565b005b3480156101d0575f5ffd5b506101eb60048036038101906101e691906117e2565b6106de565b005b3480156101f8575f5ffd5b506102016107a2565b60405161020e919061184e565b60405180910390f35b348015610222575f5ffd5b5061023d600480360381019061023891906118bc565b6107ae565b005b34801561024a575f5ffd5b506102536107fe565b6040516102609190611921565b60405180910390f35b348015610274575f5ffd5b5061027d61082f565b60405161028a919061184e565b60405180910390f35b34801561029e575f5ffd5b506102a7610853565b6040516102b4919061184e565b60405180910390f35b3480156102c8575f5ffd5b506102e360048036038101906102de91906118bc565b61085c565b6040516102f19291906119aa565b60405180910390f35b348015610305575f5ffd5b5061030e610881565b005b34801561031b575f5ffd5b50610324610a12565b604051610331919061184e565b60405180910390f35b348015610345575f5ffd5b5061034e610a18565b60405161035b91906119e7565b60405180910390f35b34801561036f575f5ffd5b5061038a60048036038101906103859190611756565b610a40565b005b348015610397575f5ffd5b506103b260048036038101906103ad9190611756565b610c1d565b005b3480156103bf575f5ffd5b506103c8610cba565b6040516103d59190611a5b565b60405180910390f35b3480156103e9575f5ffd5b506103f2610cdf565b6040516103ff919061184e565b60405180910390f35b610410610d03565b005b34801561041d575f5ffd5b50610426610e04565b604051610433919061184e565b60405180910390f35b348015610447575f5ffd5b50610450610e0d565b60405161045d919061184e565b60405180910390f35b348015610471575f5ffd5b5061047a610e13565b604051610487919061184e565b60405180910390f35b34801561049b575f5ffd5b506104b660048036038101906104b19190611756565b610e37565b005b3480156104c3575f5ffd5b506104de60048036038101906104d99190611a74565b610e4b565b6040516104eb919061184e565b60405180910390f35b3480156104ff575f5ffd5b50610508610e6b565b005b610512610fd2565b7f000000000000000000000000000000000000000000000000000000000000000073ffffffffffffffffffffffffffffffffffffffff1663a9059cbb82846040518363ffffffff1660e01b815260040161056d929190611a9f565b6020604051808303815f875af1158015610589573d5f5f3e3d5ffd5b505050506040513d601f19601f820116820180604052508101906105ad9190611af0565b505050565b6105ba610fd2565b60035f9054906101000a900473ffffffffffffffffffffffffffffffffffffffff1673ffffffffffffffffffffffffffffffffffffffff1663cb631797600754836040518363ffffffff1660e01b8152600401610618929190611b1b565b5f604051808303815f87803b15801561062f575f5ffd5b505af1158015610641573d5f5f3e3d5ffd5b5050505050565b610650610fd2565b60035f9054906101000a900473ffffffffffffffffffffffffffffffffffffffff1673ffffffffffffffffffffffffffffffffffffffff1663bec4c08c600754836040518363ffffffff1660e01b81526004016106ae929190611b1b565b5f604051808303815f87803b1580156106c5575f5ffd5b505af11580156106d7573d5f5f3e3d5ffd5b5050505050565b60035f9054906101000a900473ffffffffffffffffffffffffffffffffffffffff1673ffffffffffffffffffffffffffffffffffffffff163373ffffffffffffffffffffffffffffffffffffffff1614610792573360035f9054906101000a900473ffffffffffffffffffffffffffffffffffffffff166040517f1cf993f4000000000000000000000000000000000000000000000000000000008152600401610789929190611b42565b60405180910390fd5b61079d838383611063565b505050565b5f600e80549050905090565b5f15156107b96107fe565b1515036107f2576040517f357ff6fd00000000000000000000000000000000000000000000000000000000815260040160405180910390fd5b6107fa611271565b5050565b5f5f600e8054905090506009544210806108185750600281105b15610826575f91505061082c565b60019150505b90565b7f000000000000000000000000000000000000000000000000000000000000000081565b5f600854905090565b5f60606108676107fe565b60405180602001604052805f815250915091509250929050565b60025f9054906101000a900473ffffffffffffffffffffffffffffffffffffffff1673ffffffffffffffffffffffffffffffffffffffff163373ffffffffffffffffffffffffffffffffffffffff1614610910576040517f08c379a000000000000000000000000000000000000000000000000000000000815260040161090790611bc3565b60405180910390fd5b5f60015f9054906101000a900473ffffffffffffffffffffffffffffffffffffffff1690503360015f6101000a81548173ffffffffffffffffffffffffffffffffffffffff021916908373ffffffffffffffffffffffffffffffffffffffff1602179055505f60025f6101000a81548173ffffffffffffffffffffffffffffffffffffffff021916908373ffffffffffffffffffffffffffffffffffffffff1602179055503373ffffffffffffffffffffffffffffffffffffffff168173ffffffffffffffffffffffffffffffffffffffff167f8be0079c531659141344cd1fd0a4f28419497f9722a3daafe3b4186f6b6457e060405160405180910390a350565b60075481565b5f60015f9054906101000a900473ffffffffffffffffffffffffffffffffffffffff16905090565b610a48610a18565b73ffffffffffffffffffffffffffffffffffffffff163373ffffffffffffffffffffffffffffffffffffffff1614158015610ad0575060035f9054906101000a900473ffffffffffffffffffffffffffffffffffffffff1673ffffffffffffffffffffffffffffffffffffffff163373ffffffffffffffffffffffffffffffffffffffff1614155b15610b3e5733610ade610a18565b60035f9054906101000a900473ffffffffffffffffffffffffffffffffffffffff166040517f061db9c1000000000000000000000000000000000000000000000000000000008152600401610b3593929190611be1565b60405180910390fd5b5f73ffffffffffffffffffffffffffffffffffffffff168173ffffffffffffffffffffffffffffffffffffffff1603610ba3576040517fd92e233d00000000000000000000000000000000000000000000000000000000815260040160405180910390fd5b8060035f6101000a81548173ffffffffffffffffffffffffffffffffffffffff021916908373ffffffffffffffffffffffffffffffffffffffff1602179055507fd1a6a14209a385a964d036e404cb5cfb71f4000cdb03c9366292430787261be681604051610c1291906119e7565b60405180910390a150565b610c25610fd2565b60035f9054906101000a900473ffffffffffffffffffffffffffffffffffffffff1673ffffffffffffffffffffffffffffffffffffffff16630ae09540600754836040518363ffffffff1660e01b8152600401610c83929190611b1b565b5f604051808303815f87803b158015610c9a575f5ffd5b505af1158015610cac573d5f5f3e3d5ffd5b505050505f60078190555050565b60035f9054906101000a900473ffffffffffffffffffffffffffffffffffffffff1681565b7f000000000000000000000000000000000000000000000000000000000000000081565b7f00000000000000000000000000000000000000000000000000000000000000003414610d6757346040517f26294cab000000000000000000000000000000000000000000000000000000008152600401610d5e919061184e565b60405180910390fd5b6008544210610da2576040517f61024c0c00000000000000000000000000000000000000000000000000000000815260040160405180910390fd5b600e33908060018154018082558091505060019003905f5260205f20015f9091909190916101000a81548173ffffffffffffffffffffffffffffffffffffffff021916908373ffffffffffffffffffffffffffffffffffffffff160217905550565b5f600954905090565b60065481565b7f000000000000000000000000000000000000000000000000000000000000000081565b610e3f610fd2565b610e48816113f1565b50565b60058181548110610e5a575f80fd5b905f5260205f20015f915090505481565b60025f5403610eaf576040517f08c379a0000000000000000000000000000000000000000000000000000000008152600401610ea690611c60565b60405180910390fd5b60025f819055505f600f5f3373ffffffffffffffffffffffffffffffffffffffff1673ffffffffffffffffffffffffffffffffffffffff1681526020019081526020015f205490505f8103610f30576040517fe549ae8200000000000000000000000000000000000000000000000000000000815260040160405180910390fd5b600f5f3373ffffffffffffffffffffffffffffffffffffffff1673ffffffffffffffffffffffffffffffffffffffff1681526020019081526020015f205f9055610f7a338261151d565b3373ffffffffffffffffffffffffffffffffffffffff167f31d3317f3f01e2af0b51f534c26c80a0d0df88e2aac167c1e018de3172914c7e82604051610fc0919061184e565b60405180910390a25060015f81905550565b60015f9054906101000a900473ffffffffffffffffffffffffffffffffffffffff1673ffffffffffffffffffffffffffffffffffffffff163373ffffffffffffffffffffffffffffffffffffffff1614611061576040517f08c379a000000000000000000000000000000000000000000000000000000000815260040161105890611cc8565b60405180910390fd5b565b5f600e8054905090505f600e8285855f81811061108357611082611ce6565b5b905060200201356110949190611d40565b815481106110a5576110a4611ce6565b5b905f5260205f20015f9054906101000a900473ffffffffffffffffffffffffffffffffffffffff1690505f7f0000000000000000000000000000000000000000000000000000000000000000836110fc9190611d9d565b905061110661153a565b5f8273ffffffffffffffffffffffffffffffffffffffff168260405161112b90611e0b565b5f6040518083038185875af1925050503d805f8114611165576040519150601f19603f3d011682016040523d82523d5f602084013e61116a565b606091505b50509050806112195781600f5f8573ffffffffffffffffffffffffffffffffffffffff1673ffffffffffffffffffffffffffffffffffffffff1681526020019081526020015f205f8282546111bf9190611e1f565b925050819055508273ffffffffffffffffffffffffffffffffffffffff167f0914d3724cbf701c5c1fef489c7dd58322ee151dee11ce3a5a4250ac0d78f2b98360405161120c919061184e565b60405180910390a2611268565b8273ffffffffffffffffffffffffffffffffffffffff167f2484230f0b6c3baaaaded54a003c0ff9b2749ab658a62dd15351c1f28c6bdd538360405161125f919061184e565b60405180910390a25b50505050505050565b611279610fd2565b60035f9054906101000a900473ffffffffffffffffffffffffffffffffffffffff1673ffffffffffffffffffffffffffffffffffffffff16639b1c385e6040518060c001604052807f0000000000000000000000000000000000000000000000000000000000000000815260200160075481526020017f000000000000000000000000000000000000000000000000000000000000000061ffff1681526020017f000000000000000000000000000000000000000000000000000000000000000063ffffffff1681526020017f000000000000000000000000000000000000000000000000000000000000000063ffffffff16815260200161138a60405180602001604052805f15158152506115b2565b8152506040518263ffffffff1660e01b81526004016113a99190611f81565b6020604051808303815f875af11580156113c5573d5f5f3e3d5ffd5b505050506040513d601f19601f820116820180604052508101906113e99190611fb5565b600681905550565b3373ffffffffffffffffffffffffffffffffffffffff168173ffffffffffffffffffffffffffffffffffffffff160361145f576040517f08c379a00000000000000000000000000000000000000000000000000000000081526004016114569061202a565b60405180910390fd5b8060025f6101000a81548173ffffffffffffffffffffffffffffffffffffffff021916908373ffffffffffffffffffffffffffffffffffffffff1602179055508073ffffffffffffffffffffffffffffffffffffffff1660015f9054906101000a900473ffffffffffffffffffffffffffffffffffffffff1673ffffffffffffffffffffffffffffffffffffffff167fed8889f560326eb138920d842192f0eb3dd22b4f139c87a2c57538e05bae127860405160405180910390a350565b5f385f3884865af16115365763b12d13eb5f526004601cfd5b5050565b600e5f611547919061164a565b5f7f0000000000000000000000000000000000000000000000000000000000000000426115749190611e1f565b90507f0000000000000000000000000000000000000000000000000000000000000000816115a29190611e1f565b6009819055508060088190555050565b60607f92fd13387c7fe7befbc38d303d6468778fb9731bc4583f17d92989c6fcfdeaaa826040516024016115e69190612071565b604051602081830303815290604052907bffffffffffffffffffffffffffffffffffffffffffffffffffffffff19166020820180517bffffffffffffffffffffffffffffffffffffffffffffffffffffffff83818316178352505050509050919050565b5080545f8255905f5260205f20908101906116659190611668565b50565b5b8082111561167f575f815f905550600101611669565b5090565b5f5ffd5b5f5ffd5b5f819050919050565b61169d8161168b565b81146116a7575f5ffd5b50565b5f813590506116b881611694565b92915050565b5f73ffffffffffffffffffffffffffffffffffffffff82169050919050565b5f6116e7826116be565b9050919050565b6116f7816116dd565b8114611701575f5ffd5b50565b5f81359050611712816116ee565b92915050565b5f5f6040838503121561172e5761172d611683565b5b5f61173b858286016116aa565b925050602061174c85828601611704565b9150509250929050565b5f6020828403121561176b5761176a611683565b5b5f61177884828501611704565b91505092915050565b5f5ffd5b5f5ffd5b5f5ffd5b5f5f83601f8401126117a2576117a1611781565b5b8235905067ffffffffffffffff8111156117bf576117be611785565b5b6020830191508360208202830111156117db576117da611789565b5b9250929050565b5f5f5f604084860312156117f9576117f8611683565b5b5f611806868287016116aa565b935050602084013567ffffffffffffffff81111561182757611826611687565b5b6118338682870161178d565b92509250509250925092565b6118488161168b565b82525050565b5f6020820190506118615f83018461183f565b92915050565b5f5f83601f84011261187c5761187b611781565b5b8235905067ffffffffffffffff81111561189957611898611785565b5b6020830191508360018202830111156118b5576118b4611789565b5b9250929050565b5f5f602083850312156118d2576118d1611683565b5b5f83013567ffffffffffffffff8111156118ef576118ee611687565b5b6118fb85828601611867565b92509250509250929050565b5f8115159050919050565b61191b81611907565b82525050565b5f6020820190506119345f830184611912565b92915050565b5f81519050919050565b5f82825260208201905092915050565b8281835e5f83830152505050565b5f601f19601f8301169050919050565b5f61197c8261193a565b6119868185611944565b9350611996818560208601611954565b61199f81611962565b840191505092915050565b5f6040820190506119bd5f830185611912565b81810360208301526119cf8184611972565b90509392505050565b6119e1816116dd565b82525050565b5f6020820190506119fa5f8301846119d8565b92915050565b5f819050919050565b5f611a23611a1e611a19846116be565b611a00565b6116be565b9050919050565b5f611a3482611a09565b9050919050565b5f611a4582611a2a565b9050919050565b611a5581611a3b565b82525050565b5f602082019050611a6e5f830184611a4c565b92915050565b5f60208284031215611a8957611a88611683565b5b5f611a96848285016116aa565b91505092915050565b5f604082019050611ab25f8301856119d8565b611abf602083018461183f565b9392505050565b611acf81611907565b8114611ad9575f5ffd5b50565b5f81519050611aea81611ac6565b92915050565b5f60208284031215611b0557611b04611683565b5b5f611b1284828501611adc565b91505092915050565b5f604082019050611b2e5f83018561183f565b611b3b60208301846119d8565b9392505050565b5f604082019050611b555f8301856119d8565b611b6260208301846119d8565b9392505050565b5f82825260208201905092915050565b7f4d7573742062652070726f706f736564206f776e6572000000000000000000005f82015250565b5f611bad601683611b69565b9150611bb882611b79565b602082019050919050565b5f6020820190508181035f830152611bda81611ba1565b9050919050565b5f606082019050611bf45f8301866119d8565b611c0160208301856119d8565b611c0e60408301846119d8565b949350505050565b7f5265656e7472616e637947756172643a207265656e7472616e742063616c6c005f82015250565b5f611c4a601f83611b69565b9150611c5582611c16565b602082019050919050565b5f6020820190508181035f830152611c7781611c3e565b9050919050565b7f4f6e6c792063616c6c61626c65206279206f776e6572000000000000000000005f82015250565b5f611cb2601683611b69565b9150611cbd82611c7e565b602082019050919050565b5f6020820190508181035f830152611cdf81611ca6565b9050919050565b7f4e487b71000000000000000000000000000000000000000000000000000000005f52603260045260245ffd5b7f4e487b71000000000000000000000000000000000000000000000000000000005f52601260045260245ffd5b5f611d4a8261168b565b9150611d558361168b565b925082611d6557611d64611d13565b5b828206905092915050565b7f4e487b71000000000000000000000000000000000000000000000000000000005f52601160045260245ffd5b5f611da78261168b565b9150611db28361168b565b9250828202611dc08161168b565b91508282048414831517611dd757611dd6611d70565b5b5092915050565b5f81905092915050565b50565b5f611df65f83611dde565b9150611e0182611de8565b5f82019050919050565b5f611e1582611deb565b9150819050919050565b5f611e298261168b565b9150611e348361168b565b9250828201905080821115611e4c57611e4b611d70565b5b92915050565b5f819050919050565b611e6481611e52565b82525050565b611e738161168b565b82525050565b5f61ffff82169050919050565b611e8f81611e79565b82525050565b5f63ffffffff82169050919050565b611ead81611e95565b82525050565b5f82825260208201905092915050565b5f611ecd8261193a565b611ed78185611eb3565b9350611ee7818560208601611954565b611ef081611962565b840191505092915050565b5f60c083015f830151611f105f860182611e5b565b506020830151611f236020860182611e6a565b506040830151611f366040860182611e86565b506060830151611f496060860182611ea4565b506080830151611f5c6080860182611ea4565b5060a083015184820360a0860152611f748282611ec3565b9150508091505092915050565b5f6020820190508181035f830152611f998184611efb565b905092915050565b5f81519050611faf81611694565b92915050565b5f60208284031215611fca57611fc9611683565b5b5f611fd784828501611fa1565b91505092915050565b7f43616e6e6f74207472616e7366657220746f2073656c660000000000000000005f82015250565b5f612014601783611b69565b915061201f82611fe0565b602082019050919050565b5f6020820190508181035f83015261204181612008565b9050919050565b61205181611907565b82525050565b602082015f82015161206b5f850182612048565b50505050565b5f6020820190506120845f830184612057565b9291505056fea2646970667358221220883faa78f676166a587f038e78a943bd46da79b7ab1a6f250109a310256ae1da64736f6c634300081e0033","linkReferences":{}},"methodIdentifiers":{"acceptOwnership()":"79ba5097","addConsumer(address)":"112940f9","cancelSubscription(address)":"93d81d58","checkUpkeep(bytes)":"6e04ff0d","enterLottery()":"c1af5785","getEntryDeadline()":"6d6a430e","getPickWinnerDeadline()":"ccd2ef42","getTotalPlayers()":"4529cae7","i_entryPrice()":"e9a20c9e","i_gracePeriod()":"b145a128","i_length()":"6a81dbce","isLotteryOver()":"52e4b395","owner()":"8da5cb5b","performUpkeep(bytes)":"4585e33b","rawFulfillRandomWords(uint256,uint256[])":"1fe543e3","removeConsumer(address)":"0e27e3df","s_randomWords(uint256)":"f6eaffc8","s_requestId()":"e89e106a","s_subscriptionId()":"8ac00021","s_vrfCoordinator()":"9eccacf6","setCoordinator(address)":"8ea98117","transferOwnership(address)":"f2fde38b","winnerFallbackWithdrawal()":"f94ef2eb","withdraw(uint256,address)":"00f714ce"},"id":53}