{"abi":[{"type":"constructor","inputs":[{"name":"entryPrice","type":"uint256","internalType":"uint256"},{"name":"length","type":"uint256","internalType":"uint256"},{"name":"gracePeriod","type":"uint256","internalType":"uint256"}],"stateMutability":"nonpayable"},{"type":"function","name":"checkUpkeep","inputs":[{"name":"","type":"bytes","internalType":"bytes"}],"outputs":[{"name":"upkeepNeeded","type":"bool","internalType":"bool"},{"name":"","type":"bytes","internalType":"bytes"}],"stateMutability":"view"},{"type":"function","name":"enterLottery","inputs":[],"outputs":[],"stateMutability":"payable"},{"type":"function","name":"getEntryDeadline","inputs":[],"outputs":[{"name":"","type":"uint256","internalType":"uint256"}],"stateMutability":"view"},{"type":"function","name":"getPickWinnerDeadline","inputs":[],"outputs":[{"name":"","type":"uint256","internalType":"uint256"}],"stateMutability":"view"},{"type":"function","name":"getTotalPlayers","inputs":[],"outputs":[{"name":"","type":"uint256","internalType":"uint256"}],"stateMutability":"view"},{"type":"function","name":"get_winner_address","inputs":[{"name":"playersLength","type":"uint256","internalType":"uint256"}],"outputs":[{"name":"","type":"address","internalType":"address"}],"stateMutability":"view"},{"type":"function","name":"i_entryPrice","inputs":[],"outputs":[{"name":"","type":"uint256","internalType":"uint256"}],"stateMutability":"view"},{"type":"function","name":"i_gracePeriod","inputs":[],"outputs":[{"name":"","type":"uint256","internalType":"uint256"}],"stateMutability":"view"},{"type":"function","name":"i_length","inputs":[],"outputs":[{"name":"","type":"uint256","internalType":"uint256"}],"stateMutability":"view"},{"type":"function","name":"isLotteryOver","inputs":[],"outputs":[{"name":"","type":"bool","internalType":"bool"}],"stateMutability":"view"},{"type":"function","name":"payWinner","inputs":[],"outputs":[],"stateMutability":"nonpayable"},{"type":"function","name":"performUpkeep","inputs":[{"name":"","type":"bytes","internalType":"bytes"}],"outputs":[],"stateMutability":"nonpayable"},{"type":"function","name":"winnerFallbackWithdrawal","inputs":[],"outputs":[],"stateMutability":"nonpayable"},{"type":"event","name":"WinnerInvalidPayment","inputs":[{"name":"winner","type":"address","indexed":true,"internalType":"address"},{"name":"price","type":"uint256","indexed":false,"internalType":"uint256"}],"anonymous":false},{"type":"event","name":"WinnerPaidPrice","inputs":[{"name":"winner","type":"address","indexed":true,"internalType":"address"},{"name":"price","type":"uint256","indexed":false,"internalType":"uint256"}],"anonymous":false},{"type":"event","name":"WinnerWithdrawnPrice","inputs":[{"name":"winner","type":"address","indexed":true,"internalType":"address"},{"name":"price","type":"uint256","indexed":false,"internalType":"uint256"}],"anonymous":false},{"type":"error","name":"Lottery__alreadyEnded","inputs":[]},{"type":"error","name":"Lottery__invalidPrice","inputs":[{"name":"amount","type":"uint256","internalType":"uint256"}]},{"type":"error","name":"Lottery__noWinningsToWithdraw","inputs":[]},{"type":"error","name":"Lottery__notEnoughPlayers","inputs":[]},{"type":"error","name":"Lottery__notOver","inputs":[]}],"bytecode":{"object":"0x60e060405234801561000f575f5ffd5b5060405161100d38038061100d83398181016040528101906100319190610112565b60015f8190555082608081815250508160a081815250508060c0818152505061005e61006660201b60201c565b5050506101c2565b60035f61007391906100a2565b5f60a05142610082919061018f565b905060c05181610092919061018f565b6002819055508060018190555050565b5080545f8255905f5260205f20908101906100bd91906100c0565b50565b5b808211156100d7575f815f9055506001016100c1565b5090565b5f5ffd5b5f819050919050565b6100f1816100df565b81146100fb575f5ffd5b50565b5f8151905061010c816100e8565b92915050565b5f5f5f60608486031215610129576101286100db565b5b5f610136868287016100fe565b9350506020610147868287016100fe565b9250506040610158868287016100fe565b9150509250925092565b7f4e487b71000000000000000000000000000000000000000000000000000000005f52601160045260245ffd5b5f610199826100df565b91506101a4836100df565b92508282019050808211156101bc576101bb610162565b5b92915050565b60805160a05160c051610e056102085f395f81816103df01526108ef01525f818161030d01526108c101525f81816104650152818161060b01526107150152610e055ff3fe6080604052600436106100c1575f3560e01c8063a1dd6ba41161007e578063c1af578511610058578063c1af57851461024e578063ccd2ef4214610258578063e9a20c9e14610282578063f94ef2eb146102ac576100c1565b8063a1dd6ba4146101d2578063b145a1281461020e578063be71248a14610238576100c1565b80634529cae7146100c55780634585e33b146100ef57806352e4b395146101175780636a81dbce146101415780636d6a430e1461016b5780636e04ff0d14610195575b5f5ffd5b3480156100d0575f5ffd5b506100d96102c2565b6040516100e691906109a0565b60405180910390f35b3480156100fa575f5ffd5b5061011560048036038101906101109190610a22565b6102ce565b005b348015610122575f5ffd5b5061012b6102da565b6040516101389190610a87565b60405180910390f35b34801561014c575f5ffd5b5061015561030b565b60405161016291906109a0565b60405180910390f35b348015610176575f5ffd5b5061017f61032f565b60405161018c91906109a0565b60405180910390f35b3480156101a0575f5ffd5b506101bb60048036038101906101b69190610a22565b610338565b6040516101c9929190610b10565b60405180910390f35b3480156101dd575f5ffd5b506101f860048036038101906101f39190610b68565b61034c565b6040516102059190610bd2565b60405180910390f35b348015610219575f5ffd5b506102226103dd565b60405161022f91906109a0565b60405180910390f35b348015610243575f5ffd5b5061024c610401565b005b610256610609565b005b348015610263575f5ffd5b5061026c61070a565b60405161027991906109a0565b60405180910390f35b34801561028d575f5ffd5b50610296610713565b6040516102a391906109a0565b60405180910390f35b3480156102b7575f5ffd5b506102c0610737565b005b5f600380549050905090565b6102d6610401565b5050565b5f5f60038054905090506002544210806102f45750600281105b15610302575f915050610308565b60019150505b90565b7f000000000000000000000000000000000000000000000000000000000000000081565b5f600154905090565b5f60606103436102da565b91509250929050565b5f6002821015610388576040517f010d7aef00000000000000000000000000000000000000000000000000000000815260040160405180910390fd5b60038261039361085c565b61039d9190610c18565b815481106103ae576103ad610c48565b5b905f5260205f20015f9054906101000a900473ffffffffffffffffffffffffffffffffffffffff169050919050565b7f000000000000000000000000000000000000000000000000000000000000000081565b610409610864565b5f15156104146102da565b15150361044d576040517f357ff6fd00000000000000000000000000000000000000000000000000000000815260040160405180910390fd5b5f60038054905090505f6104608261034c565b90505f7f00000000000000000000000000000000000000000000000000000000000000008361048f9190610ca2565b90506104996108b1565b5f8273ffffffffffffffffffffffffffffffffffffffff16826040516104be90610d10565b5f6040518083038185875af1925050503d805f81146104f8576040519150601f19603f3d011682016040523d82523d5f602084013e6104fd565b606091505b50509050806105ac578160045f8573ffffffffffffffffffffffffffffffffffffffff1673ffffffffffffffffffffffffffffffffffffffff1681526020019081526020015f205f8282546105529190610d24565b925050819055508273ffffffffffffffffffffffffffffffffffffffff167f0914d3724cbf701c5c1fef489c7dd58322ee151dee11ce3a5a4250ac0d78f2b98360405161059f91906109a0565b60405180910390a26105fb565b8273ffffffffffffffffffffffffffffffffffffffff167f2484230f0b6c3baaaaded54a003c0ff9b2749ab658a62dd15351c1f28c6bdd53836040516105f291906109a0565b60405180910390a25b50505050610607610929565b565b7f0000000000000000000000000000000000000000000000000000000000000000341461066d57346040517f26294cab00000000000000000000000000000000000000000000000000000000815260040161066491906109a0565b60405180910390fd5b60015442106106a8576040517f61024c0c00000000000000000000000000000000000000000000000000000000815260040160405180910390fd5b600333908060018154018082558091505060019003905f5260205f20015f9091909190916101000a81548173ffffffffffffffffffffffffffffffffffffffff021916908373ffffffffffffffffffffffffffffffffffffffff160217905550565b5f600254905090565b7f000000000000000000000000000000000000000000000000000000000000000081565b61073f610864565b5f60045f3373ffffffffffffffffffffffffffffffffffffffff1673ffffffffffffffffffffffffffffffffffffffff1681526020019081526020015f205490505f81036107b9576040517fe549ae8200000000000000000000000000000000000000000000000000000000815260040160405180910390fd5b60045f3373ffffffffffffffffffffffffffffffffffffffff1673ffffffffffffffffffffffffffffffffffffffff1681526020019081526020015f205f90556108033382610932565b3373ffffffffffffffffffffffffffffffffffffffff167f31d3317f3f01e2af0b51f534c26c80a0d0df88e2aac167c1e018de3172914c7e8260405161084991906109a0565b60405180910390a25061085a610929565b565b5f6005905090565b60025f54036108a8576040517f08c379a000000000000000000000000000000000000000000000000000000000815260040161089f90610db1565b60405180910390fd5b60025f81905550565b60035f6108be919061094f565b5f7f0000000000000000000000000000000000000000000000000000000000000000426108eb9190610d24565b90507f0000000000000000000000000000000000000000000000000000000000000000816109199190610d24565b6002819055508060018190555050565b60015f81905550565b5f385f3884865af161094b5763b12d13eb5f526004601cfd5b5050565b5080545f8255905f5260205f209081019061096a919061096d565b50565b5b80821115610984575f815f90555060010161096e565b5090565b5f819050919050565b61099a81610988565b82525050565b5f6020820190506109b35f830184610991565b92915050565b5f5ffd5b5f5ffd5b5f5ffd5b5f5ffd5b5f5ffd5b5f5f83601f8401126109e2576109e16109c1565b5b8235905067ffffffffffffffff8111156109ff576109fe6109c5565b5b602083019150836001820283011115610a1b57610a1a6109c9565b5b9250929050565b5f5f60208385031215610a3857610a376109b9565b5b5f83013567ffffffffffffffff811115610a5557610a546109bd565b5b610a61858286016109cd565b92509250509250929050565b5f8115159050919050565b610a8181610a6d565b82525050565b5f602082019050610a9a5f830184610a78565b92915050565b5f81519050919050565b5f82825260208201905092915050565b8281835e5f83830152505050565b5f601f19601f8301169050919050565b5f610ae282610aa0565b610aec8185610aaa565b9350610afc818560208601610aba565b610b0581610ac8565b840191505092915050565b5f604082019050610b235f830185610a78565b8181036020830152610b358184610ad8565b90509392505050565b610b4781610988565b8114610b51575f5ffd5b50565b5f81359050610b6281610b3e565b92915050565b5f60208284031215610b7d57610b7c6109b9565b5b5f610b8a84828501610b54565b91505092915050565b5f73ffffffffffffffffffffffffffffffffffffffff82169050919050565b5f610bbc82610b93565b9050919050565b610bcc81610bb2565b82525050565b5f602082019050610be55f830184610bc3565b92915050565b7f4e487b71000000000000000000000000000000000000000000000000000000005f52601260045260245ffd5b5f610c2282610988565b9150610c2d83610988565b925082610c3d57610c3c610beb565b5b828206905092915050565b7f4e487b71000000000000000000000000000000000000000000000000000000005f52603260045260245ffd5b7f4e487b71000000000000000000000000000000000000000000000000000000005f52601160045260245ffd5b5f610cac82610988565b9150610cb783610988565b9250828202610cc581610988565b91508282048414831517610cdc57610cdb610c75565b5b5092915050565b5f81905092915050565b50565b5f610cfb5f83610ce3565b9150610d0682610ced565b5f82019050919050565b5f610d1a82610cf0565b9150819050919050565b5f610d2e82610988565b9150610d3983610988565b9250828201905080821115610d5157610d50610c75565b5b92915050565b5f82825260208201905092915050565b7f5265656e7472616e637947756172643a207265656e7472616e742063616c6c005f82015250565b5f610d9b601f83610d57565b9150610da682610d67565b602082019050919050565b5f6020820190508181035f830152610dc881610d8f565b905091905056fea264697066735822122076be9644f852de3736d014855f0fde404979ceb849e922a7fc554b8a64774a4a64736f6c634300081e0033","linkReferences":{}},"methodIdentifiers":{"checkUpkeep(bytes)":"6e04ff0d","enterLottery()":"c1af5785","getEntryDeadline()":"6d6a430e","getPickWinnerDeadline()":"ccd2ef42","getTotalPlayers()":"4529cae7","get_winner_address(uint256)":"a1dd6ba4","i_entryPrice()":"e9a20c9e","i_gracePeriod()":"b145a128","i_length()":"6a81dbce","isLotteryOver()":"52e4b395","payWinner()":"be71248a","performUpkeep(bytes)":"4585e33b","winnerFallbackWithdrawal()":"f94ef2eb"},"id":31}