{"abi":[{"type":"constructor","inputs":[{"name":"entryPrice","type":"uint256","internalType":"uint256"},{"name":"length","type":"uint256","internalType":"uint256"},{"name":"gracePeriod","type":"uint256","internalType":"uint256"}],"stateMutability":"nonpayable"},{"type":"function","name":"MAX_PLAYERS","inputs":[],"outputs":[{"name":"","type":"uint256","internalType":"uint256"}],"stateMutability":"view"},{"type":"function","name":"enterLottery","inputs":[],"outputs":[],"stateMutability":"payable"},{"type":"function","name":"getEntryDeadline","inputs":[],"outputs":[{"name":"","type":"uint256","internalType":"uint256"}],"stateMutability":"view"},{"type":"function","name":"getPickWinnerDeadline","inputs":[],"outputs":[{"name":"","type":"uint256","internalType":"uint256"}],"stateMutability":"view"},{"type":"function","name":"getTotalPlayers","inputs":[],"outputs":[{"name":"","type":"uint256","internalType":"uint256"}],"stateMutability":"view"},{"type":"function","name":"get_winner_address","inputs":[{"name":"playersLength","type":"uint256","internalType":"uint256"}],"outputs":[{"name":"","type":"address","internalType":"address"}],"stateMutability":"view"},{"type":"function","name":"i_entryPrice","inputs":[],"outputs":[{"name":"","type":"uint256","internalType":"uint256"}],"stateMutability":"view"},{"type":"function","name":"i_gracePeriod","inputs":[],"outputs":[{"name":"","type":"uint256","internalType":"uint256"}],"stateMutability":"view"},{"type":"function","name":"i_length","inputs":[],"outputs":[{"name":"","type":"uint256","internalType":"uint256"}],"stateMutability":"view"},{"type":"function","name":"isLotteryOver","inputs":[],"outputs":[{"name":"","type":"bool","internalType":"bool"}],"stateMutability":"view"},{"type":"function","name":"payWinner","inputs":[],"outputs":[],"stateMutability":"nonpayable"},{"type":"function","name":"winnerFallbackWithdrawal","inputs":[],"outputs":[],"stateMutability":"nonpayable"},{"type":"event","name":"WinnerInvalidPayment","inputs":[{"name":"winner","type":"address","indexed":true,"internalType":"address"},{"name":"price","type":"uint256","indexed":false,"internalType":"uint256"}],"anonymous":false},{"type":"event","name":"WinnerPaidPrice","inputs":[{"name":"winner","type":"address","indexed":true,"internalType":"address"},{"name":"price","type":"uint256","indexed":false,"internalType":"uint256"}],"anonymous":false},{"type":"event","name":"WinnerWithdrawnPrice","inputs":[{"name":"winner","type":"address","indexed":true,"internalType":"address"},{"name":"price","type":"uint256","indexed":false,"internalType":"uint256"}],"anonymous":false},{"type":"error","name":"Lottery__alreadyEnded","inputs":[]},{"type":"error","name":"Lottery__invalidPrice","inputs":[{"name":"amount","type":"uint256","internalType":"uint256"}]},{"type":"error","name":"Lottery__isFull","inputs":[]},{"type":"error","name":"Lottery__noWinningsToWithdraw","inputs":[]},{"type":"error","name":"Lottery__notEnoughPlayers","inputs":[]},{"type":"error","name":"Lottery__notOver","inputs":[]}],"bytecode":{"object":"0x60e060405234801561000f575f5ffd5b50604051610f20380380610f2083398181016040528101906100319190610148565b60015f8190555082608081815250508160a081815250508060c0818152505061005e61006660201b60201c565b505050610225565b5f60035490505f5f90505b818110156100d9575f6004826064811061008e5761008d610198565b5b015f6101000a81548173ffffffffffffffffffffffffffffffffffffffff021916908373ffffffffffffffffffffffffffffffffffffffff1602179055508080600101915050610071565b505f6003819055505f60a051426100f091906101f2565b905060c0518161010091906101f2565b600281905550806001819055505050565b5f5ffd5b5f819050919050565b61012781610115565b8114610131575f5ffd5b50565b5f815190506101428161011e565b92915050565b5f5f5f6060848603121561015f5761015e610111565b5b5f61016c86828701610134565b935050602061017d86828701610134565b925050604061018e86828701610134565b9150509250925092565b7f4e487b71000000000000000000000000000000000000000000000000000000005f52603260045260245ffd5b7f4e487b71000000000000000000000000000000000000000000000000000000005f52601160045260245ffd5b5f6101fc82610115565b915061020783610115565b925082820190508082111561021f5761021e6101c5565b5b92915050565b60805160a05160c051610cb561026b5f395f8181610362015261092501525f81816102ab01526108f701525f81816103e50152818161058b01526106dd0152610cb55ff3fe6080604052600436106100a6575f3560e01c8063b145a12811610063578063b145a128146101b8578063be71248a146101e2578063c1af5785146101f8578063ccd2ef4214610202578063e9a20c9e1461022c578063f94ef2eb14610256576100a6565b80634411b3eb146100aa5780634529cae7146100d457806352e4b395146100fe5780636a81dbce146101285780636d6a430e14610152578063a1dd6ba41461017c575b5f5ffd5b3480156100b5575f5ffd5b506100be61026c565b6040516100cb919061099e565b60405180910390f35b3480156100df575f5ffd5b506100e8610272565b6040516100f5919061099e565b60405180910390f35b348015610109575f5ffd5b5061011261027b565b60405161011f91906109d1565b60405180910390f35b348015610133575f5ffd5b5061013c6102a9565b604051610149919061099e565b60405180910390f35b34801561015d575f5ffd5b506101666102cd565b604051610173919061099e565b60405180910390f35b348015610187575f5ffd5b506101a2600480360381019061019d9190610a18565b6102d6565b6040516101af9190610a82565b60405180910390f35b3480156101c3575f5ffd5b506101cc610360565b6040516101d9919061099e565b60405180910390f35b3480156101ed575f5ffd5b506101f6610384565b005b610200610589565b005b34801561020d575f5ffd5b506102166106d2565b604051610223919061099e565b60405180910390f35b348015610237575f5ffd5b506102406106db565b60405161024d919061099e565b60405180910390f35b348015610261575f5ffd5b5061026a6106ff565b005b6103e881565b5f600354905090565b5f5f60035490506002544210806102925750600281105b156102a0575f9150506102a6565b60019150505b90565b7f000000000000000000000000000000000000000000000000000000000000000081565b5f600154905090565b5f6002821015610312576040517f010d7aef00000000000000000000000000000000000000000000000000000000815260040160405180910390fd5b60048261031d610824565b6103279190610ac8565b6064811061033857610337610af8565b5b015f9054906101000a900473ffffffffffffffffffffffffffffffffffffffff169050919050565b7f000000000000000000000000000000000000000000000000000000000000000081565b61038c61082c565b5f151561039761027b565b1515036103d0576040517f357ff6fd00000000000000000000000000000000000000000000000000000000815260040160405180910390fd5b5f60035490505f6103e0826102d6565b90505f7f00000000000000000000000000000000000000000000000000000000000000008361040f9190610b52565b9050610419610879565b5f8273ffffffffffffffffffffffffffffffffffffffff168260405161043e90610bc0565b5f6040518083038185875af1925050503d805f8114610478576040519150601f19603f3d011682016040523d82523d5f602084013e61047d565b606091505b505090508061052c578160685f8573ffffffffffffffffffffffffffffffffffffffff1673ffffffffffffffffffffffffffffffffffffffff1681526020019081526020015f205f8282546104d29190610bd4565b925050819055508273ffffffffffffffffffffffffffffffffffffffff167f0914d3724cbf701c5c1fef489c7dd58322ee151dee11ce3a5a4250ac0d78f2b98360405161051f919061099e565b60405180910390a261057b565b8273ffffffffffffffffffffffffffffffffffffffff167f2484230f0b6c3baaaaded54a003c0ff9b2749ab658a62dd15351c1f28c6bdd5383604051610572919061099e565b60405180910390a25b50505050610587610960565b565b7f000000000000000000000000000000000000000000000000000000000000000034146105ed57346040517f26294cab0000000000000000000000000000000000000000000000000000000081526004016105e4919061099e565b60405180910390fd5b6001544210610628576040517f61024c0c00000000000000000000000000000000000000000000000000000000815260040160405180910390fd5b5f60035490506103e88103610669576040517f10953b9900000000000000000000000000000000000000000000000000000000815260040160405180910390fd5b336004826064811061067e5761067d610af8565b5b015f6101000a81548173ffffffffffffffffffffffffffffffffffffffff021916908373ffffffffffffffffffffffffffffffffffffffff1602179055506001816106c99190610bd4565b60038190555050565b5f600254905090565b7f000000000000000000000000000000000000000000000000000000000000000081565b61070761082c565b5f60685f3373ffffffffffffffffffffffffffffffffffffffff1673ffffffffffffffffffffffffffffffffffffffff1681526020019081526020015f205490505f8103610781576040517fe549ae8200000000000000000000000000000000000000000000000000000000815260040160405180910390fd5b60685f3373ffffffffffffffffffffffffffffffffffffffff1673ffffffffffffffffffffffffffffffffffffffff1681526020019081526020015f205f90556107cb3382610969565b3373ffffffffffffffffffffffffffffffffffffffff167f31d3317f3f01e2af0b51f534c26c80a0d0df88e2aac167c1e018de3172914c7e82604051610811919061099e565b60405180910390a250610822610960565b565b5f6005905090565b60025f5403610870576040517f08c379a000000000000000000000000000000000000000000000000000000000815260040161086790610c61565b60405180910390fd5b60025f81905550565b5f60035490505f5f90505b818110156108ec575f600482606481106108a1576108a0610af8565b5b015f6101000a81548173ffffffffffffffffffffffffffffffffffffffff021916908373ffffffffffffffffffffffffffffffffffffffff1602179055508080600101915050610884565b505f6003819055505f7f0000000000000000000000000000000000000000000000000000000000000000426109219190610bd4565b90507f00000000000000000000000000000000000000000000000000000000000000008161094f9190610bd4565b600281905550806001819055505050565b60015f81905550565b5f385f3884865af16109825763b12d13eb5f526004601cfd5b5050565b5f819050919050565b61099881610986565b82525050565b5f6020820190506109b15f83018461098f565b92915050565b5f8115159050919050565b6109cb816109b7565b82525050565b5f6020820190506109e45f8301846109c2565b92915050565b5f5ffd5b6109f781610986565b8114610a01575f5ffd5b50565b5f81359050610a12816109ee565b92915050565b5f60208284031215610a2d57610a2c6109ea565b5b5f610a3a84828501610a04565b91505092915050565b5f73ffffffffffffffffffffffffffffffffffffffff82169050919050565b5f610a6c82610a43565b9050919050565b610a7c81610a62565b82525050565b5f602082019050610a955f830184610a73565b92915050565b7f4e487b71000000000000000000000000000000000000000000000000000000005f52601260045260245ffd5b5f610ad282610986565b9150610add83610986565b925082610aed57610aec610a9b565b5b828206905092915050565b7f4e487b71000000000000000000000000000000000000000000000000000000005f52603260045260245ffd5b7f4e487b71000000000000000000000000000000000000000000000000000000005f52601160045260245ffd5b5f610b5c82610986565b9150610b6783610986565b9250828202610b7581610986565b91508282048414831517610b8c57610b8b610b25565b5b5092915050565b5f81905092915050565b50565b5f610bab5f83610b93565b9150610bb682610b9d565b5f82019050919050565b5f610bca82610ba0565b9150819050919050565b5f610bde82610986565b9150610be983610986565b9250828201905080821115610c0157610c00610b25565b5b92915050565b5f82825260208201905092915050565b7f5265656e7472616e637947756172643a207265656e7472616e742063616c6c005f82015250565b5f610c4b601f83610c07565b9150610c5682610c17565b602082019050919050565b5f6020820190508181035f830152610c7881610c3f565b905091905056fea2646970667358221220199be8e3d2e57f24620b28b5967b346e287f78bf409493b69067ae117c27647264736f6c634300081e0033","linkReferences":{}},"methodIdentifiers":{"MAX_PLAYERS()":"4411b3eb","enterLottery()":"c1af5785","getEntryDeadline()":"6d6a430e","getPickWinnerDeadline()":"ccd2ef42","getTotalPlayers()":"4529cae7","get_winner_address(uint256)":"a1dd6ba4","i_entryPrice()":"e9a20c9e","i_gracePeriod()":"b145a128","i_length()":"6a81dbce","isLotteryOver()":"52e4b395","payWinner()":"be71248a","winnerFallbackWithdrawal()":"f94ef2eb"},"id":24}