{"abi":[{"type":"constructor","inputs":[{"name":"entryPrice","type":"uint256","internalType":"uint256"},{"name":"length","type":"uint256","internalType":"uint256"},{"name":"gracePeriod","type":"uint256","internalType":"uint256"}],"stateMutability":"nonpayable"},{"type":"function","name":"checkUpkeep","inputs":[{"name":"","type":"bytes","internalType":"bytes"}],"outputs":[{"name":"upkeepNeeded","type":"bool","internalType":"bool"},{"name":"","type":"bytes","internalType":"bytes"}],"stateMutability":"view"},{"type":"function","name":"counter","inputs":[],"outputs":[{"name":"","type":"uint256","internalType":"uint256"}],"stateMutability":"view"},{"type":"function","name":"enterLottery","inputs":[],"outputs":[],"stateMutability":"payable"},{"type":"function","name":"getEntryDeadline","inputs":[],"outputs":[{"name":"","type":"uint256","internalType":"uint256"}],"stateMutability":"view"},{"type":"function","name":"getPickWinnerDeadline","inputs":[],"outputs":[{"name":"","type":"uint256","internalType":"uint256"}],"stateMutability":"view"},{"type":"function","name":"getTotalPlayers","inputs":[],"outputs":[{"name":"","type":"uint256","internalType":"uint256"}],"stateMutability":"view"},{"type":"function","name":"get_winner_address","inputs":[{"name":"playersLength","type":"uint256","internalType":"uint256"}],"outputs":[{"name":"","type":"address","internalType":"address"}],"stateMutability":"view"},{"type":"function","name":"i_entryPrice","inputs":[],"outputs":[{"name":"","type":"uint256","internalType":"uint256"}],"stateMutability":"view"},{"type":"function","name":"i_gracePeriod","inputs":[],"outputs":[{"name":"","type":"uint256","internalType":"uint256"}],"stateMutability":"view"},{"type":"function","name":"i_length","inputs":[],"outputs":[{"name":"","type":"uint256","internalType":"uint256"}],"stateMutability":"view"},{"type":"function","name":"interval","inputs":[],"outputs":[{"name":"","type":"uint256","internalType":"uint256"}],"stateMutability":"view"},{"type":"function","name":"isLotteryOver","inputs":[],"outputs":[{"name":"","type":"bool","internalType":"bool"}],"stateMutability":"view"},{"type":"function","name":"lastTimeStamp","inputs":[],"outputs":[{"name":"","type":"uint256","internalType":"uint256"}],"stateMutability":"view"},{"type":"function","name":"payWinner","inputs":[],"outputs":[],"stateMutability":"nonpayable"},{"type":"function","name":"performUpkeep","inputs":[{"name":"","type":"bytes","internalType":"bytes"}],"outputs":[],"stateMutability":"nonpayable"},{"type":"function","name":"winnerFallbackWithdrawal","inputs":[],"outputs":[],"stateMutability":"nonpayable"},{"type":"event","name":"WinnerInvalidPayment","inputs":[{"name":"winner","type":"address","indexed":true,"internalType":"address"},{"name":"price","type":"uint256","indexed":false,"internalType":"uint256"}],"anonymous":false},{"type":"event","name":"WinnerPaidPrice","inputs":[{"name":"winner","type":"address","indexed":true,"internalType":"address"},{"name":"price","type":"uint256","indexed":false,"internalType":"uint256"}],"anonymous":false},{"type":"event","name":"WinnerWithdrawnPrice","inputs":[{"name":"winner","type":"address","indexed":true,"internalType":"address"},{"name":"price","type":"uint256","indexed":false,"internalType":"uint256"}],"anonymous":false},{"type":"error","name":"Lottery__alreadyEnded","inputs":[]},{"type":"error","name":"Lottery__invalidPrice","inputs":[{"name":"amount","type":"uint256","internalType":"uint256"}]},{"type":"error","name":"Lottery__noWinningsToWithdraw","inputs":[]},{"type":"error","name":"Lottery__notEnoughPlayers","inputs":[]},{"type":"error","name":"Lottery__notOver","inputs":[]}],"bytecode":{"object":"0x610100604052348015610010575f5ffd5b5060405161110538038061110583398181016040528101906100329190610122565b60015f8190555082608081815250508160a081815250508060c081815250508160e081815250504260068190555061006e61007660201b60201c565b5050506101d2565b60035f61008391906100b2565b5f60a05142610092919061019f565b905060c051816100a2919061019f565b6002819055508060018190555050565b5080545f8255905f5260205f20908101906100cd91906100d0565b50565b5b808211156100e7575f815f9055506001016100d1565b5090565b5f5ffd5b5f819050919050565b610101816100ef565b811461010b575f5ffd5b50565b5f8151905061011c816100f8565b92915050565b5f5f5f60608486031215610139576101386100eb565b5b5f6101468682870161010e565b93505060206101578682870161010e565b92505060406101688682870161010e565b9150509250925092565b7f4e487b71000000000000000000000000000000000000000000000000000000005f52601160045260245ffd5b5f6101a9826100ef565b91506101b4836100ef565b92508282019050808211156101cc576101cb610172565b5b92915050565b60805160a05160c05160e051610ee46102215f395f61040901525f81816104be01526109ce01525f81816103c801526109a001525f8181610544015281816106ea01526107f40152610ee45ff3fe6080604052600436106100f2575f3560e01c8063947a36fb11610089578063c1af578511610058578063c1af5785146102fd578063ccd2ef4214610307578063e9a20c9e14610331578063f94ef2eb1461035b576100f2565b8063947a36fb14610257578063a1dd6ba414610281578063b145a128146102bd578063be71248a146102e7576100f2565b806361bc221a116100c557806361bc221a1461019c5780636a81dbce146101c65780636d6a430e146101f05780636e04ff0d1461021a576100f2565b80633f3b3b27146100f65780634529cae7146101205780634585e33b1461014a57806352e4b39514610172575b5f5ffd5b348015610101575f5ffd5b5061010a610371565b6040516101179190610a7f565b60405180910390f35b34801561012b575f5ffd5b50610134610377565b6040516101419190610a7f565b60405180910390f35b348015610155575f5ffd5b50610170600480360381019061016b9190610b01565b610383565b005b34801561017d575f5ffd5b5061018661038f565b6040516101939190610b66565b60405180910390f35b3480156101a7575f5ffd5b506101b06103c0565b6040516101bd9190610a7f565b60405180910390f35b3480156101d1575f5ffd5b506101da6103c6565b6040516101e79190610a7f565b60405180910390f35b3480156101fb575f5ffd5b506102046103ea565b6040516102119190610a7f565b60405180910390f35b348015610225575f5ffd5b50610240600480360381019061023b9190610b01565b6103f3565b60405161024e929190610bef565b60405180910390f35b348015610262575f5ffd5b5061026b610407565b6040516102789190610a7f565b60405180910390f35b34801561028c575f5ffd5b506102a760048036038101906102a29190610c47565b61042b565b6040516102b49190610cb1565b60405180910390f35b3480156102c8575f5ffd5b506102d16104bc565b6040516102de9190610a7f565b60405180910390f35b3480156102f2575f5ffd5b506102fb6104e0565b005b6103056106e8565b005b348015610312575f5ffd5b5061031b6107e9565b6040516103289190610a7f565b60405180910390f35b34801561033c575f5ffd5b506103456107f2565b6040516103529190610a7f565b60405180910390f35b348015610366575f5ffd5b5061036f610816565b005b60065481565b5f600380549050905090565b61038b6104e0565b5050565b5f5f60038054905090506002544210806103a95750600281105b156103b7575f9150506103bd565b60019150505b90565b60055481565b7f000000000000000000000000000000000000000000000000000000000000000081565b5f600154905090565b5f60606103fe61038f565b91509250929050565b7f000000000000000000000000000000000000000000000000000000000000000081565b5f6002821015610467576040517f010d7aef00000000000000000000000000000000000000000000000000000000815260040160405180910390fd5b60038261047261093b565b61047c9190610cf7565b8154811061048d5761048c610d27565b5b905f5260205f20015f9054906101000a900473ffffffffffffffffffffffffffffffffffffffff169050919050565b7f000000000000000000000000000000000000000000000000000000000000000081565b6104e8610943565b5f15156104f361038f565b15150361052c576040517f357ff6fd00000000000000000000000000000000000000000000000000000000815260040160405180910390fd5b5f60038054905090505f61053f8261042b565b90505f7f00000000000000000000000000000000000000000000000000000000000000008361056e9190610d81565b9050610578610990565b5f8273ffffffffffffffffffffffffffffffffffffffff168260405161059d90610def565b5f6040518083038185875af1925050503d805f81146105d7576040519150601f19603f3d011682016040523d82523d5f602084013e6105dc565b606091505b505090508061068b578160045f8573ffffffffffffffffffffffffffffffffffffffff1673ffffffffffffffffffffffffffffffffffffffff1681526020019081526020015f205f8282546106319190610e03565b925050819055508273ffffffffffffffffffffffffffffffffffffffff167f0914d3724cbf701c5c1fef489c7dd58322ee151dee11ce3a5a4250ac0d78f2b98360405161067e9190610a7f565b60405180910390a26106da565b8273ffffffffffffffffffffffffffffffffffffffff167f2484230f0b6c3baaaaded54a003c0ff9b2749ab658a62dd15351c1f28c6bdd53836040516106d19190610a7f565b60405180910390a25b505050506106e6610a08565b565b7f0000000000000000000000000000000000000000000000000000000000000000341461074c57346040517f26294cab0000000000000000000000000000000000000000000000000000000081526004016107439190610a7f565b60405180910390fd5b6001544210610787576040517f61024c0c00000000000000000000000000000000000000000000000000000000815260040160405180910390fd5b600333908060018154018082558091505060019003905f5260205f20015f9091909190916101000a81548173ffffffffffffffffffffffffffffffffffffffff021916908373ffffffffffffffffffffffffffffffffffffffff160217905550565b5f600254905090565b7f000000000000000000000000000000000000000000000000000000000000000081565b61081e610943565b5f60045f3373ffffffffffffffffffffffffffffffffffffffff1673ffffffffffffffffffffffffffffffffffffffff1681526020019081526020015f205490505f8103610898576040517fe549ae8200000000000000000000000000000000000000000000000000000000815260040160405180910390fd5b60045f3373ffffffffffffffffffffffffffffffffffffffff1673ffffffffffffffffffffffffffffffffffffffff1681526020019081526020015f205f90556108e23382610a11565b3373ffffffffffffffffffffffffffffffffffffffff167f31d3317f3f01e2af0b51f534c26c80a0d0df88e2aac167c1e018de3172914c7e826040516109289190610a7f565b60405180910390a250610939610a08565b565b5f6005905090565b60025f5403610987576040517f08c379a000000000000000000000000000000000000000000000000000000000815260040161097e90610e90565b60405180910390fd5b60025f81905550565b60035f61099d9190610a2e565b5f7f0000000000000000000000000000000000000000000000000000000000000000426109ca9190610e03565b90507f0000000000000000000000000000000000000000000000000000000000000000816109f89190610e03565b6002819055508060018190555050565b60015f81905550565b5f385f3884865af1610a2a5763b12d13eb5f526004601cfd5b5050565b5080545f8255905f5260205f2090810190610a499190610a4c565b50565b5b80821115610a63575f815f905550600101610a4d565b5090565b5f819050919050565b610a7981610a67565b82525050565b5f602082019050610a925f830184610a70565b92915050565b5f5ffd5b5f5ffd5b5f5ffd5b5f5ffd5b5f5ffd5b5f5f83601f840112610ac157610ac0610aa0565b5b8235905067ffffffffffffffff811115610ade57610add610aa4565b5b602083019150836001820283011115610afa57610af9610aa8565b5b9250929050565b5f5f60208385031215610b1757610b16610a98565b5b5f83013567ffffffffffffffff811115610b3457610b33610a9c565b5b610b4085828601610aac565b92509250509250929050565b5f8115159050919050565b610b6081610b4c565b82525050565b5f602082019050610b795f830184610b57565b92915050565b5f81519050919050565b5f82825260208201905092915050565b8281835e5f83830152505050565b5f601f19601f8301169050919050565b5f610bc182610b7f565b610bcb8185610b89565b9350610bdb818560208601610b99565b610be481610ba7565b840191505092915050565b5f604082019050610c025f830185610b57565b8181036020830152610c148184610bb7565b90509392505050565b610c2681610a67565b8114610c30575f5ffd5b50565b5f81359050610c4181610c1d565b92915050565b5f60208284031215610c5c57610c5b610a98565b5b5f610c6984828501610c33565b91505092915050565b5f73ffffffffffffffffffffffffffffffffffffffff82169050919050565b5f610c9b82610c72565b9050919050565b610cab81610c91565b82525050565b5f602082019050610cc45f830184610ca2565b92915050565b7f4e487b71000000000000000000000000000000000000000000000000000000005f52601260045260245ffd5b5f610d0182610a67565b9150610d0c83610a67565b925082610d1c57610d1b610cca565b5b828206905092915050565b7f4e487b71000000000000000000000000000000000000000000000000000000005f52603260045260245ffd5b7f4e487b71000000000000000000000000000000000000000000000000000000005f52601160045260245ffd5b5f610d8b82610a67565b9150610d9683610a67565b9250828202610da481610a67565b91508282048414831517610dbb57610dba610d54565b5b5092915050565b5f81905092915050565b50565b5f610dda5f83610dc2565b9150610de582610dcc565b5f82019050919050565b5f610df982610dcf565b9150819050919050565b5f610e0d82610a67565b9150610e1883610a67565b9250828201905080821115610e3057610e2f610d54565b5b92915050565b5f82825260208201905092915050565b7f5265656e7472616e637947756172643a207265656e7472616e742063616c6c005f82015250565b5f610e7a601f83610e36565b9150610e8582610e46565b602082019050919050565b5f6020820190508181035f830152610ea781610e6e565b905091905056fea2646970667358221220ad89dcc2ed45a7ae4fa00b828c956e057a327e945a971946373b585bf2149be764736f6c634300081e0033","linkReferences":{}},"methodIdentifiers":{"checkUpkeep(bytes)":"6e04ff0d","counter()":"61bc221a","enterLottery()":"c1af5785","getEntryDeadline()":"6d6a430e","getPickWinnerDeadline()":"ccd2ef42","getTotalPlayers()":"4529cae7","get_winner_address(uint256)":"a1dd6ba4","i_entryPrice()":"e9a20c9e","i_gracePeriod()":"b145a128","i_length()":"6a81dbce","interval()":"947a36fb","isLotteryOver()":"52e4b395","lastTimeStamp()":"3f3b3b27","payWinner()":"be71248a","performUpkeep(bytes)":"4585e33b","winnerFallbackWithdrawal()":"f94ef2eb"},"id":28}