{"abi":[{"type":"constructor","inputs":[{"name":"entryPrice","type":"uint256","internalType":"uint256"},{"name":"length","type":"uint256","internalType":"uint256"},{"name":"gracePeriod","type":"uint256","internalType":"uint256"},{"name":"link_token_contract","type":"address","internalType":"address"},{"name":"vrfCoordinatorV2Plus","type":"address","internalType":"address"},{"name":"keyHash","type":"bytes32","internalType":"bytes32"},{"name":"callbackGasLimit","type":"uint32","internalType":"uint32"},{"name":"requestConfirmations","type":"uint16","internalType":"uint16"},{"name":"numWords","type":"uint32","internalType":"uint32"}],"stateMutability":"nonpayable"},{"type":"function","name":"acceptOwnership","inputs":[],"outputs":[],"stateMutability":"nonpayable"},{"type":"function","name":"addConsumer","inputs":[{"name":"consumerAddress","type":"address","internalType":"address"}],"outputs":[],"stateMutability":"nonpayable"},{"type":"function","name":"cancelSubscription","inputs":[{"name":"receivingWallet","type":"address","internalType":"address"}],"outputs":[],"stateMutability":"nonpayable"},{"type":"function","name":"checkUpkeep","inputs":[{"name":"","type":"bytes","internalType":"bytes"}],"outputs":[{"name":"","type":"bool","internalType":"bool"},{"name":"","type":"bytes","internalType":"bytes"}],"stateMutability":"view"},{"type":"function","name":"enterLottery","inputs":[],"outputs":[],"stateMutability":"payable"},{"type":"function","name":"fundAndStartLottery","inputs":[{"name":"token","type":"address","internalType":"address"},{"name":"amount","type":"uint256","internalType":"uint256"}],"outputs":[],"stateMutability":"nonpayable"},{"type":"function","name":"isLotteryOver","inputs":[],"outputs":[{"name":"","type":"bool","internalType":"bool"}],"stateMutability":"view"},{"type":"function","name":"owner","inputs":[],"outputs":[{"name":"","type":"address","internalType":"address"}],"stateMutability":"view"},{"type":"function","name":"performUpkeep","inputs":[{"name":"","type":"bytes","internalType":"bytes"}],"outputs":[],"stateMutability":"nonpayable"},{"type":"function","name":"rawFulfillRandomWords","inputs":[{"name":"requestId","type":"uint256","internalType":"uint256"},{"name":"randomWords","type":"uint256[]","internalType":"uint256[]"}],"outputs":[],"stateMutability":"nonpayable"},{"type":"function","name":"removeConsumer","inputs":[{"name":"consumerAddress","type":"address","internalType":"address"}],"outputs":[],"stateMutability":"nonpayable"},{"type":"function","name":"s_randomWords","inputs":[{"name":"","type":"uint256","internalType":"uint256"}],"outputs":[{"name":"","type":"uint256","internalType":"uint256"}],"stateMutability":"view"},{"type":"function","name":"s_requestId","inputs":[],"outputs":[{"name":"","type":"uint256","internalType":"uint256"}],"stateMutability":"view"},{"type":"function","name":"s_subscriptionId","inputs":[],"outputs":[{"name":"","type":"uint256","internalType":"uint256"}],"stateMutability":"view"},{"type":"function","name":"s_vrfCoordinator","inputs":[],"outputs":[{"name":"","type":"address","internalType":"contract IVRFCoordinatorV2Plus"}],"stateMutability":"view"},{"type":"function","name":"setCoordinator","inputs":[{"name":"_vrfCoordinator","type":"address","internalType":"address"}],"outputs":[],"stateMutability":"nonpayable"},{"type":"function","name":"transferOwnership","inputs":[{"name":"to","type":"address","internalType":"address"}],"outputs":[],"stateMutability":"nonpayable"},{"type":"function","name":"winnerFallbackWithdrawal","inputs":[],"outputs":[],"stateMutability":"nonpayable"},{"type":"function","name":"withdraw","inputs":[{"name":"amount","type":"uint256","internalType":"uint256"},{"name":"to","type":"address","internalType":"address"}],"outputs":[],"stateMutability":"nonpayable"},{"type":"event","name":"CoordinatorSet","inputs":[{"name":"vrfCoordinator","type":"address","indexed":false,"internalType":"address"}],"anonymous":false},{"type":"event","name":"OwnershipTransferRequested","inputs":[{"name":"from","type":"address","indexed":true,"internalType":"address"},{"name":"to","type":"address","indexed":true,"internalType":"address"}],"anonymous":false},{"type":"event","name":"OwnershipTransferred","inputs":[{"name":"from","type":"address","indexed":true,"internalType":"address"},{"name":"to","type":"address","indexed":true,"internalType":"address"}],"anonymous":false},{"type":"event","name":"WinnerWithdrawnPrice","inputs":[{"name":"winner","type":"address","indexed":true,"internalType":"address"},{"name":"price","type":"uint256","indexed":false,"internalType":"uint256"}],"anonymous":false},{"type":"error","name":"Lottery__alreadyEnded","inputs":[]},{"type":"error","name":"Lottery__alreadyInitialized","inputs":[]},{"type":"error","name":"Lottery__invalidPrice","inputs":[{"name":"amount","type":"uint256","internalType":"uint256"}]},{"type":"error","name":"Lottery__noWinningsToWithdraw","inputs":[]},{"type":"error","name":"Lottery__notEnoughPlayers","inputs":[]},{"type":"error","name":"Lottery__notOver","inputs":[]},{"type":"error","name":"OnlyCoordinatorCanFulfill","inputs":[{"name":"have","type":"address","internalType":"address"},{"name":"want","type":"address","internalType":"address"}]},{"type":"error","name":"OnlyOwnerOrCoordinator","inputs":[{"name":"have","type":"address","internalType":"address"},{"name":"owner","type":"address","internalType":"address"},{"name":"coordinator","type":"address","internalType":"address"}]},{"type":"error","name":"ZeroAddress","inputs":[]}],"bytecode":{"object":"0x610180604052600361ffff1660e09061ffff16815250600263ffffffff166101009063ffffffff16815250348015610035575f5ffd5b50604051612b17380380612b1783398181016040528101906100579190610715565b8486858585858533805f60015f819055505f73ffffffffffffffffffffffffffffffffffffffff168273ffffffffffffffffffffffffffffffffffffffff16036100d6576040517f08c379a00000000000000000000000000000000000000000000000000000000081526004016100cd90610833565b60405180910390fd5b8160015f6101000a81548173ffffffffffffffffffffffffffffffffffffffff021916908373ffffffffffffffffffffffffffffffffffffffff1602179055505f73ffffffffffffffffffffffffffffffffffffffff168173ffffffffffffffffffffffffffffffffffffffff161461015957610158816102f460201b60201c565b5b5050505f73ffffffffffffffffffffffffffffffffffffffff168173ffffffffffffffffffffffffffffffffffffffff16036101c1576040517fd92e233d00000000000000000000000000000000000000000000000000000000815260040160405180910390fd5b8060035f6101000a81548173ffffffffffffffffffffffffffffffffffffffff021916908373ffffffffffffffffffffffffffffffffffffffff160217905550508560035f6101000a81548173ffffffffffffffffffffffffffffffffffffffff021916908373ffffffffffffffffffffffffffffffffffffffff1602179055508473ffffffffffffffffffffffffffffffffffffffff1660808173ffffffffffffffffffffffffffffffffffffffff16815250508360a081815250508263ffffffff1660c08163ffffffff16815250508161ffff1660e08161ffff16815250508063ffffffff166101008163ffffffff16815250506102c561042060201b60201c565b505050505050886101208181525050876101408181525050866101608181525050505050505050505050610991565b3373ffffffffffffffffffffffffffffffffffffffff168173ffffffffffffffffffffffffffffffffffffffff1603610362576040517f08c379a00000000000000000000000000000000000000000000000000000000081526004016103599061089b565b60405180910390fd5b8060025f6101000a81548173ffffffffffffffffffffffffffffffffffffffff021916908373ffffffffffffffffffffffffffffffffffffffff1602179055508073ffffffffffffffffffffffffffffffffffffffff1660015f9054906101000a900473ffffffffffffffffffffffffffffffffffffffff1673ffffffffffffffffffffffffffffffffffffffff167fed8889f560326eb138920d842192f0eb3dd22b4f139c87a2c57538e05bae127860405160405180910390a350565b61042e61055060201b60201c565b60035f9054906101000a900473ffffffffffffffffffffffffffffffffffffffff1673ffffffffffffffffffffffffffffffffffffffff1663a21a23e46040518163ffffffff1660e01b81526004016020604051808303815f875af1158015610499573d5f5f3e3d5ffd5b505050506040513d601f19601f820116820180604052508101906104bd91906108b9565b60078190555060035f9054906101000a900473ffffffffffffffffffffffffffffffffffffffff1673ffffffffffffffffffffffffffffffffffffffff1663bec4c08c600754306040518363ffffffff1660e01b8152600401610521929190610902565b5f604051808303815f87803b158015610538575f5ffd5b505af115801561054a573d5f5f3e3d5ffd5b50505050565b60015f9054906101000a900473ffffffffffffffffffffffffffffffffffffffff1673ffffffffffffffffffffffffffffffffffffffff163373ffffffffffffffffffffffffffffffffffffffff16146105df576040517f08c379a00000000000000000000000000000000000000000000000000000000081526004016105d690610973565b60405180910390fd5b565b5f5ffd5b5f819050919050565b6105f7816105e5565b8114610601575f5ffd5b50565b5f81519050610612816105ee565b92915050565b5f73ffffffffffffffffffffffffffffffffffffffff82169050919050565b5f61064182610618565b9050919050565b61065181610637565b811461065b575f5ffd5b50565b5f8151905061066c81610648565b92915050565b5f819050919050565b61068481610672565b811461068e575f5ffd5b50565b5f8151905061069f8161067b565b92915050565b5f63ffffffff82169050919050565b6106bd816106a5565b81146106c7575f5ffd5b50565b5f815190506106d8816106b4565b92915050565b5f61ffff82169050919050565b6106f4816106de565b81146106fe575f5ffd5b50565b5f8151905061070f816106eb565b92915050565b5f5f5f5f5f5f5f5f5f6101208a8c031215610733576107326105e1565b5b5f6107408c828d01610604565b99505060206107518c828d01610604565b98505060406107628c828d01610604565b97505060606107738c828d0161065e565b96505060806107848c828d0161065e565b95505060a06107958c828d01610691565b94505060c06107a68c828d016106ca565b93505060e06107b78c828d01610701565b9250506101006107c98c828d016106ca565b9150509295985092959850929598565b5f82825260208201905092915050565b7f43616e6e6f7420736574206f776e657220746f207a65726f00000000000000005f82015250565b5f61081d6018836107d9565b9150610828826107e9565b602082019050919050565b5f6020820190508181035f83015261084a81610811565b9050919050565b7f43616e6e6f74207472616e7366657220746f2073656c660000000000000000005f82015250565b5f6108856017836107d9565b915061089082610851565b602082019050919050565b5f6020820190508181035f8301526108b281610879565b9050919050565b5f602082840312156108ce576108cd6105e1565b5b5f6108db84828501610604565b91505092915050565b6108ed816105e5565b82525050565b6108fc81610637565b82525050565b5f6040820190506109155f8301856108e4565b61092260208301846108f3565b9392505050565b7f4f6e6c792063616c6c61626c65206279206f776e6572000000000000000000005f82015250565b5f61095d6016836107d9565b915061096882610929565b602082019050919050565b5f6020820190508181035f83015261098a81610951565b9050919050565b60805160a05160c05160e0516101005161012051610140516101605161211d6109fa5f395f6113dd01525f6113af01525f8181610c96015261103601525f61120a01525f6111b401525f6111de01525f61118601525f818161040901526112be015261211d5ff3fe608060405260043610610112575f3560e01c80638da5cb5b1161009f578063c1af578511610063578063c1af578514610351578063e89e106a1461035b578063f2fde38b14610385578063f6eaffc8146103ad578063f94ef2eb146103e957610112565b80638da5cb5b146102855780638ea98117146102af57806393d81d58146102d75780639eccacf6146102ff578063b71709c11461032957610112565b80634585e33b116100e65780634585e33b146101b657806352e4b395146101de5780636e04ff0d1461020857806379ba5097146102455780638ac000211461025b57610112565b8062f714ce146101165780630e27e3df1461013e578063112940f9146101665780631fe543e31461018e575b5f5ffd5b348015610121575f5ffd5b5061013c600480360381019061013791906116c6565b6103ff565b005b348015610149575f5ffd5b50610164600480360381019061015f9190611704565b6104a7565b005b348015610171575f5ffd5b5061018c60048036038101906101879190611704565b61053d565b005b348015610199575f5ffd5b506101b460048036038101906101af9190611790565b6105d3565b005b3480156101c1575f5ffd5b506101dc60048036038101906101d79190611842565b610697565b005b3480156101e9575f5ffd5b506101f26106e7565b6040516101ff91906118a7565b60405180910390f35b348015610213575f5ffd5b5061022e60048036038101906102299190611842565b610718565b60405161023c929190611930565b60405180910390f35b348015610250575f5ffd5b5061025961073d565b005b348015610266575f5ffd5b5061026f6108ce565b60405161027c919061196d565b60405180910390f35b348015610290575f5ffd5b506102996108d4565b6040516102a69190611995565b60405180910390f35b3480156102ba575f5ffd5b506102d560048036038101906102d09190611704565b6108fc565b005b3480156102e2575f5ffd5b506102fd60048036038101906102f89190611704565b610ad9565b005b34801561030a575f5ffd5b50610313610b76565b6040516103209190611a09565b60405180910390f35b348015610334575f5ffd5b5061034f600480360381019061034a9190611a22565b610b9b565b005b610359610c94565b005b348015610366575f5ffd5b5061036f610d95565b60405161037c919061196d565b60405180910390f35b348015610390575f5ffd5b506103ab60048036038101906103a69190611704565b610d9b565b005b3480156103b8575f5ffd5b506103d360048036038101906103ce9190611a60565b610daf565b6040516103e0919061196d565b60405180910390f35b3480156103f4575f5ffd5b506103fd610dcf565b005b610407610f36565b7f000000000000000000000000000000000000000000000000000000000000000073ffffffffffffffffffffffffffffffffffffffff1663a9059cbb82846040518363ffffffff1660e01b8152600401610462929190611a8b565b6020604051808303815f875af115801561047e573d5f5f3e3d5ffd5b505050506040513d601f19601f820116820180604052508101906104a29190611adc565b505050565b6104af610f36565b60035f9054906101000a900473ffffffffffffffffffffffffffffffffffffffff1673ffffffffffffffffffffffffffffffffffffffff1663cb631797600754836040518363ffffffff1660e01b815260040161050d929190611b07565b5f604051808303815f87803b158015610524575f5ffd5b505af1158015610536573d5f5f3e3d5ffd5b5050505050565b610545610f36565b60035f9054906101000a900473ffffffffffffffffffffffffffffffffffffffff1673ffffffffffffffffffffffffffffffffffffffff1663bec4c08c600754836040518363ffffffff1660e01b81526004016105a3929190611b07565b5f604051808303815f87803b1580156105ba575f5ffd5b505af11580156105cc573d5f5f3e3d5ffd5b5050505050565b60035f9054906101000a900473ffffffffffffffffffffffffffffffffffffffff1673ffffffffffffffffffffffffffffffffffffffff163373ffffffffffffffffffffffffffffffffffffffff1614610687573360035f9054906101000a900473ffffffffffffffffffffffffffffffffffffffff166040517f1cf993f400000000000000000000000000000000000000000000000000000000815260040161067e929190611b2e565b60405180910390fd5b610692838383610fc7565b505050565b5f15156106a26106e7565b1515036106db576040517f357ff6fd00000000000000000000000000000000000000000000000000000000815260040160405180910390fd5b6106e3611134565b5050565b5f5f600b8054905090506009544210806107015750600281105b1561070f575f915050610715565b60019150505b90565b5f60606107236106e7565b60405180602001604052805f815250915091509250929050565b60025f9054906101000a900473ffffffffffffffffffffffffffffffffffffffff1673ffffffffffffffffffffffffffffffffffffffff163373ffffffffffffffffffffffffffffffffffffffff16146107cc576040517f08c379a00000000000000000000000000000000000000000000000000000000081526004016107c390611baf565b60405180910390fd5b5f60015f9054906101000a900473ffffffffffffffffffffffffffffffffffffffff1690503360015f6101000a81548173ffffffffffffffffffffffffffffffffffffffff021916908373ffffffffffffffffffffffffffffffffffffffff1602179055505f60025f6101000a81548173ffffffffffffffffffffffffffffffffffffffff021916908373ffffffffffffffffffffffffffffffffffffffff1602179055503373ffffffffffffffffffffffffffffffffffffffff168173ffffffffffffffffffffffffffffffffffffffff167f8be0079c531659141344cd1fd0a4f28419497f9722a3daafe3b4186f6b6457e060405160405180910390a350565b60075481565b5f60015f9054906101000a900473ffffffffffffffffffffffffffffffffffffffff16905090565b6109046108d4565b73ffffffffffffffffffffffffffffffffffffffff163373ffffffffffffffffffffffffffffffffffffffff161415801561098c575060035f9054906101000a900473ffffffffffffffffffffffffffffffffffffffff1673ffffffffffffffffffffffffffffffffffffffff163373ffffffffffffffffffffffffffffffffffffffff1614155b156109fa573361099a6108d4565b60035f9054906101000a900473ffffffffffffffffffffffffffffffffffffffff166040517f061db9c10000000000000000000000000000000000000000000000000000000081526004016109f193929190611bcd565b60405180910390fd5b5f73ffffffffffffffffffffffffffffffffffffffff168173ffffffffffffffffffffffffffffffffffffffff1603610a5f576040517fd92e233d00000000000000000000000000000000000000000000000000000000815260040160405180910390fd5b8060035f6101000a81548173ffffffffffffffffffffffffffffffffffffffff021916908373ffffffffffffffffffffffffffffffffffffffff1602179055507fd1a6a14209a385a964d036e404cb5cfb71f4000cdb03c9366292430787261be681604051610ace9190611995565b60405180910390a150565b610ae1610f36565b60035f9054906101000a900473ffffffffffffffffffffffffffffffffffffffff1673ffffffffffffffffffffffffffffffffffffffff16630ae09540600754836040518363ffffffff1660e01b8152600401610b3f929190611b07565b5f604051808303815f87803b158015610b56575f5ffd5b505af1158015610b68573d5f5f3e3d5ffd5b505050505f60078190555050565b60035f9054906101000a900473ffffffffffffffffffffffffffffffffffffffff1681565b60011515600a5f9054906101000a900460ff16151503610be7576040517f1c95717e00000000000000000000000000000000000000000000000000000000815260040160405180910390fd5b6001600a5f6101000a81548160ff0219169083151502179055508173ffffffffffffffffffffffffffffffffffffffff166323b872dd3330846040518463ffffffff1660e01b8152600401610c3e93929190611c02565b6020604051808303815f875af1158015610c5a573d5f5f3e3d5ffd5b505050506040513d601f19601f82011682018060405250810190610c7e9190611adc565b50610c88816112b4565b610c9061139f565b5050565b7f00000000000000000000000000000000000000000000000000000000000000003414610cf857346040517f26294cab000000000000000000000000000000000000000000000000000000008152600401610cef919061196d565b60405180910390fd5b6008544210610d33576040517f61024c0c00000000000000000000000000000000000000000000000000000000815260040160405180910390fd5b600b33908060018154018082558091505060019003905f5260205f20015f9091909190916101000a81548173ffffffffffffffffffffffffffffffffffffffff021916908373ffffffffffffffffffffffffffffffffffffffff160217905550565b60065481565b610da3610f36565b610dac81611417565b50565b60058181548110610dbe575f80fd5b905f5260205f20015f915090505481565b60025f5403610e13576040517f08c379a0000000000000000000000000000000000000000000000000000000008152600401610e0a90611c81565b60405180910390fd5b60025f819055505f600c5f3373ffffffffffffffffffffffffffffffffffffffff1673ffffffffffffffffffffffffffffffffffffffff1681526020019081526020015f205490505f8103610e94576040517fe549ae8200000000000000000000000000000000000000000000000000000000815260040160405180910390fd5b600c5f3373ffffffffffffffffffffffffffffffffffffffff1673ffffffffffffffffffffffffffffffffffffffff1681526020019081526020015f205f9055610ede3382611543565b3373ffffffffffffffffffffffffffffffffffffffff167f31d3317f3f01e2af0b51f534c26c80a0d0df88e2aac167c1e018de3172914c7e82604051610f24919061196d565b60405180910390a25060015f81905550565b60015f9054906101000a900473ffffffffffffffffffffffffffffffffffffffff1673ffffffffffffffffffffffffffffffffffffffff163373ffffffffffffffffffffffffffffffffffffffff1614610fc5576040517f08c379a0000000000000000000000000000000000000000000000000000000008152600401610fbc90611ce9565b60405180910390fd5b565b5f600b8054905090505f600b8285855f818110610fe757610fe6611d07565b5b90506020020135610ff89190611d61565b8154811061100957611008611d07565b5b905f5260205f20015f9054906101000a900473ffffffffffffffffffffffffffffffffffffffff1690505f7f0000000000000000000000000000000000000000000000000000000000000000836110609190611dbe565b905061106a61139f565b5f8273ffffffffffffffffffffffffffffffffffffffff168260405161108f90611e2c565b5f6040518083038185875af1925050503d805f81146110c9576040519150601f19603f3d011682016040523d82523d5f602084013e6110ce565b606091505b505090508061112b5781600c5f8573ffffffffffffffffffffffffffffffffffffffff1673ffffffffffffffffffffffffffffffffffffffff1681526020019081526020015f205f8282546111239190611e40565b925050819055505b50505050505050565b61113c610f36565b60035f9054906101000a900473ffffffffffffffffffffffffffffffffffffffff1673ffffffffffffffffffffffffffffffffffffffff16639b1c385e6040518060c001604052807f0000000000000000000000000000000000000000000000000000000000000000815260200160075481526020017f000000000000000000000000000000000000000000000000000000000000000061ffff1681526020017f000000000000000000000000000000000000000000000000000000000000000063ffffffff1681526020017f000000000000000000000000000000000000000000000000000000000000000063ffffffff16815260200161124d60405180602001604052805f1515815250611560565b8152506040518263ffffffff1660e01b815260040161126c9190611fa2565b6020604051808303815f875af1158015611288573d5f5f3e3d5ffd5b505050506040513d601f19601f820116820180604052508101906112ac9190611fd6565b600681905550565b6112bc610f36565b7f000000000000000000000000000000000000000000000000000000000000000073ffffffffffffffffffffffffffffffffffffffff16634000aea060035f9054906101000a900473ffffffffffffffffffffffffffffffffffffffff168360075460405160200161132e919061196d565b6040516020818303038152906040526040518463ffffffff1660e01b815260040161135b93929190612001565b6020604051808303815f875af1158015611377573d5f5f3e3d5ffd5b505050506040513d601f19601f8201168201806040525081019061139b9190611adc565b5050565b600b5f6113ac91906115f8565b5f7f0000000000000000000000000000000000000000000000000000000000000000426113d99190611e40565b90507f0000000000000000000000000000000000000000000000000000000000000000816114079190611e40565b6009819055508060088190555050565b3373ffffffffffffffffffffffffffffffffffffffff168173ffffffffffffffffffffffffffffffffffffffff1603611485576040517f08c379a000000000000000000000000000000000000000000000000000000000815260040161147c90612087565b60405180910390fd5b8060025f6101000a81548173ffffffffffffffffffffffffffffffffffffffff021916908373ffffffffffffffffffffffffffffffffffffffff1602179055508073ffffffffffffffffffffffffffffffffffffffff1660015f9054906101000a900473ffffffffffffffffffffffffffffffffffffffff1673ffffffffffffffffffffffffffffffffffffffff167fed8889f560326eb138920d842192f0eb3dd22b4f139c87a2c57538e05bae127860405160405180910390a350565b5f385f3884865af161155c5763b12d13eb5f526004601cfd5b5050565b60607f92fd13387c7fe7befbc38d303d6468778fb9731bc4583f17d92989c6fcfdeaaa8260405160240161159491906120ce565b604051602081830303815290604052907bffffffffffffffffffffffffffffffffffffffffffffffffffffffff19166020820180517bffffffffffffffffffffffffffffffffffffffffffffffffffffffff83818316178352505050509050919050565b5080545f8255905f5260205f20908101906116139190611616565b50565b5b8082111561162d575f815f905550600101611617565b5090565b5f5ffd5b5f5ffd5b5f819050919050565b61164b81611639565b8114611655575f5ffd5b50565b5f8135905061166681611642565b92915050565b5f73ffffffffffffffffffffffffffffffffffffffff82169050919050565b5f6116958261166c565b9050919050565b6116a58161168b565b81146116af575f5ffd5b50565b5f813590506116c08161169c565b92915050565b5f5f604083850312156116dc576116db611631565b5b5f6116e985828601611658565b92505060206116fa858286016116b2565b9150509250929050565b5f6020828403121561171957611718611631565b5b5f611726848285016116b2565b91505092915050565b5f5ffd5b5f5ffd5b5f5ffd5b5f5f83601f8401126117505761174f61172f565b5b8235905067ffffffffffffffff81111561176d5761176c611733565b5b60208301915083602082028301111561178957611788611737565b5b9250929050565b5f5f5f604084860312156117a7576117a6611631565b5b5f6117b486828701611658565b935050602084013567ffffffffffffffff8111156117d5576117d4611635565b5b6117e18682870161173b565b92509250509250925092565b5f5f83601f8401126118025761180161172f565b5b8235905067ffffffffffffffff81111561181f5761181e611733565b5b60208301915083600182028301111561183b5761183a611737565b5b9250929050565b5f5f6020838503121561185857611857611631565b5b5f83013567ffffffffffffffff81111561187557611874611635565b5b611881858286016117ed565b92509250509250929050565b5f8115159050919050565b6118a18161188d565b82525050565b5f6020820190506118ba5f830184611898565b92915050565b5f81519050919050565b5f82825260208201905092915050565b8281835e5f83830152505050565b5f601f19601f8301169050919050565b5f611902826118c0565b61190c81856118ca565b935061191c8185602086016118da565b611925816118e8565b840191505092915050565b5f6040820190506119435f830185611898565b818103602083015261195581846118f8565b90509392505050565b61196781611639565b82525050565b5f6020820190506119805f83018461195e565b92915050565b61198f8161168b565b82525050565b5f6020820190506119a85f830184611986565b92915050565b5f819050919050565b5f6119d16119cc6119c78461166c565b6119ae565b61166c565b9050919050565b5f6119e2826119b7565b9050919050565b5f6119f3826119d8565b9050919050565b611a03816119e9565b82525050565b5f602082019050611a1c5f8301846119fa565b92915050565b5f5f60408385031215611a3857611a37611631565b5b5f611a45858286016116b2565b9250506020611a5685828601611658565b9150509250929050565b5f60208284031215611a7557611a74611631565b5b5f611a8284828501611658565b91505092915050565b5f604082019050611a9e5f830185611986565b611aab602083018461195e565b9392505050565b611abb8161188d565b8114611ac5575f5ffd5b50565b5f81519050611ad681611ab2565b92915050565b5f60208284031215611af157611af0611631565b5b5f611afe84828501611ac8565b91505092915050565b5f604082019050611b1a5f83018561195e565b611b276020830184611986565b9392505050565b5f604082019050611b415f830185611986565b611b4e6020830184611986565b9392505050565b5f82825260208201905092915050565b7f4d7573742062652070726f706f736564206f776e6572000000000000000000005f82015250565b5f611b99601683611b55565b9150611ba482611b65565b602082019050919050565b5f6020820190508181035f830152611bc681611b8d565b9050919050565b5f606082019050611be05f830186611986565b611bed6020830185611986565b611bfa6040830184611986565b949350505050565b5f606082019050611c155f830186611986565b611c226020830185611986565b611c2f604083018461195e565b949350505050565b7f5265656e7472616e637947756172643a207265656e7472616e742063616c6c005f82015250565b5f611c6b601f83611b55565b9150611c7682611c37565b602082019050919050565b5f6020820190508181035f830152611c9881611c5f565b9050919050565b7f4f6e6c792063616c6c61626c65206279206f776e6572000000000000000000005f82015250565b5f611cd3601683611b55565b9150611cde82611c9f565b602082019050919050565b5f6020820190508181035f830152611d0081611cc7565b9050919050565b7f4e487b71000000000000000000000000000000000000000000000000000000005f52603260045260245ffd5b7f4e487b71000000000000000000000000000000000000000000000000000000005f52601260045260245ffd5b5f611d6b82611639565b9150611d7683611639565b925082611d8657611d85611d34565b5b828206905092915050565b7f4e487b71000000000000000000000000000000000000000000000000000000005f52601160045260245ffd5b5f611dc882611639565b9150611dd383611639565b9250828202611de181611639565b91508282048414831517611df857611df7611d91565b5b5092915050565b5f81905092915050565b50565b5f611e175f83611dff565b9150611e2282611e09565b5f82019050919050565b5f611e3682611e0c565b9150819050919050565b5f611e4a82611639565b9150611e5583611639565b9250828201905080821115611e6d57611e6c611d91565b5b92915050565b5f819050919050565b611e8581611e73565b82525050565b611e9481611639565b82525050565b5f61ffff82169050919050565b611eb081611e9a565b82525050565b5f63ffffffff82169050919050565b611ece81611eb6565b82525050565b5f82825260208201905092915050565b5f611eee826118c0565b611ef88185611ed4565b9350611f088185602086016118da565b611f11816118e8565b840191505092915050565b5f60c083015f830151611f315f860182611e7c565b506020830151611f446020860182611e8b565b506040830151611f576040860182611ea7565b506060830151611f6a6060860182611ec5565b506080830151611f7d6080860182611ec5565b5060a083015184820360a0860152611f958282611ee4565b9150508091505092915050565b5f6020820190508181035f830152611fba8184611f1c565b905092915050565b5f81519050611fd081611642565b92915050565b5f60208284031215611feb57611fea611631565b5b5f611ff884828501611fc2565b91505092915050565b5f6060820190506120145f830186611986565b612021602083018561195e565b818103604083015261203381846118f8565b9050949350505050565b7f43616e6e6f74207472616e7366657220746f2073656c660000000000000000005f82015250565b5f612071601783611b55565b915061207c8261203d565b602082019050919050565b5f6020820190508181035f83015261209e81612065565b9050919050565b6120ae8161188d565b82525050565b602082015f8201516120c85f8501826120a5565b50505050565b5f6020820190506120e15f8301846120b4565b9291505056fea26469706673582212207e2f5d4a5e8210605b4800ff9b577079ec27cbad0153447fe9a79042ba77018564736f6c634300081e0033","linkReferences":{}},"methodIdentifiers":{"acceptOwnership()":"79ba5097","addConsumer(address)":"112940f9","cancelSubscription(address)":"93d81d58","checkUpkeep(bytes)":"6e04ff0d","enterLottery()":"c1af5785","fundAndStartLottery(address,uint256)":"b71709c1","isLotteryOver()":"52e4b395","owner()":"8da5cb5b","performUpkeep(bytes)":"4585e33b","rawFulfillRandomWords(uint256,uint256[])":"1fe543e3","removeConsumer(address)":"0e27e3df","s_randomWords(uint256)":"f6eaffc8","s_requestId()":"e89e106a","s_subscriptionId()":"8ac00021","s_vrfCoordinator()":"9eccacf6","setCoordinator(address)":"8ea98117","transferOwnership(address)":"f2fde38b","winnerFallbackWithdrawal()":"f94ef2eb","withdraw(uint256,address)":"00f714ce"},"id":53}