{"abi":[{"type":"constructor","inputs":[{"name":"entryPrice","type":"uint256","internalType":"uint256"},{"name":"length","type":"uint256","internalType":"uint256"},{"name":"gracePeriod","type":"uint256","internalType":"uint256"},{"name":"link_token_contract","type":"address","internalType":"address"},{"name":"vrfCoordinatorV2Plus","type":"address","internalType":"address"},{"name":"keyHash","type":"bytes32","internalType":"bytes32"},{"name":"callbackGasLimit","type":"uint32","internalType":"uint32"},{"name":"requestConfirmations","type":"uint16","internalType":"uint16"},{"name":"numWords","type":"uint32","internalType":"uint32"}],"stateMutability":"nonpayable"},{"type":"function","name":"acceptOwnership","inputs":[],"outputs":[],"stateMutability":"nonpayable"},{"type":"function","name":"addConsumer","inputs":[{"name":"consumerAddress","type":"address","internalType":"address"}],"outputs":[],"stateMutability":"nonpayable"},{"type":"function","name":"cancelSubscription","inputs":[{"name":"receivingWallet","type":"address","internalType":"address"}],"outputs":[],"stateMutability":"nonpayable"},{"type":"function","name":"checkUpkeep","inputs":[{"name":"","type":"bytes","internalType":"bytes"}],"outputs":[{"name":"","type":"bool","internalType":"bool"},{"name":"","type":"bytes","internalType":"bytes"}],"stateMutability":"view"},{"type":"function","name":"enterLottery","inputs":[],"outputs":[],"stateMutability":"payable"},{"type":"function","name":"fundAndStartLottery","inputs":[{"name":"token","type":"address","internalType":"address"},{"name":"sender","type":"address","internalType":"address"},{"name":"amount","type":"uint256","internalType":"uint256"}],"outputs":[],"stateMutability":"nonpayable"},{"type":"function","name":"isLotteryOver","inputs":[],"outputs":[{"name":"","type":"bool","internalType":"bool"}],"stateMutability":"view"},{"type":"function","name":"owner","inputs":[],"outputs":[{"name":"","type":"address","internalType":"address"}],"stateMutability":"view"},{"type":"function","name":"performUpkeep","inputs":[{"name":"","type":"bytes","internalType":"bytes"}],"outputs":[],"stateMutability":"nonpayable"},{"type":"function","name":"rawFulfillRandomWords","inputs":[{"name":"requestId","type":"uint256","internalType":"uint256"},{"name":"randomWords","type":"uint256[]","internalType":"uint256[]"}],"outputs":[],"stateMutability":"nonpayable"},{"type":"function","name":"removeConsumer","inputs":[{"name":"consumerAddress","type":"address","internalType":"address"}],"outputs":[],"stateMutability":"nonpayable"},{"type":"function","name":"s_randomWords","inputs":[{"name":"","type":"uint256","internalType":"uint256"}],"outputs":[{"name":"","type":"uint256","internalType":"uint256"}],"stateMutability":"view"},{"type":"function","name":"s_requestId","inputs":[],"outputs":[{"name":"","type":"uint256","internalType":"uint256"}],"stateMutability":"view"},{"type":"function","name":"s_subscriptionId","inputs":[],"outputs":[{"name":"","type":"uint256","internalType":"uint256"}],"stateMutability":"view"},{"type":"function","name":"s_vrfCoordinator","inputs":[],"outputs":[{"name":"","type":"address","internalType":"contract IVRFCoordinatorV2Plus"}],"stateMutability":"view"},{"type":"function","name":"setCoordinator","inputs":[{"name":"_vrfCoordinator","type":"address","internalType":"address"}],"outputs":[],"stateMutability":"nonpayable"},{"type":"function","name":"transferOwnership","inputs":[{"name":"to","type":"address","internalType":"address"}],"outputs":[],"stateMutability":"nonpayable"},{"type":"function","name":"winnerFallbackWithdrawal","inputs":[],"outputs":[],"stateMutability":"nonpayable"},{"type":"function","name":"withdraw","inputs":[{"name":"amount","type":"uint256","internalType":"uint256"},{"name":"to","type":"address","internalType":"address"}],"outputs":[],"stateMutability":"nonpayable"},{"type":"event","name":"CoordinatorSet","inputs":[{"name":"vrfCoordinator","type":"address","indexed":false,"internalType":"address"}],"anonymous":false},{"type":"event","name":"OwnershipTransferRequested","inputs":[{"name":"from","type":"address","indexed":true,"internalType":"address"},{"name":"to","type":"address","indexed":true,"internalType":"address"}],"anonymous":false},{"type":"event","name":"OwnershipTransferred","inputs":[{"name":"from","type":"address","indexed":true,"internalType":"address"},{"name":"to","type":"address","indexed":true,"internalType":"address"}],"anonymous":false},{"type":"event","name":"WinnerInvalidPayment","inputs":[{"name":"winner","type":"address","indexed":true,"internalType":"address"},{"name":"price","type":"uint256","indexed":false,"internalType":"uint256"}],"anonymous":false},{"type":"event","name":"WinnerPaidPrice","inputs":[{"name":"winner","type":"address","indexed":true,"internalType":"address"},{"name":"price","type":"uint256","indexed":false,"internalType":"uint256"}],"anonymous":false},{"type":"event","name":"WinnerWithdrawnPrice","inputs":[{"name":"winner","type":"address","indexed":true,"internalType":"address"},{"name":"price","type":"uint256","indexed":false,"internalType":"uint256"}],"anonymous":false},{"type":"error","name":"Lottery__alreadyEnded","inputs":[]},{"type":"error","name":"Lottery__invalidPrice","inputs":[{"name":"amount","type":"uint256","internalType":"uint256"}]},{"type":"error","name":"Lottery__noWinningsToWithdraw","inputs":[]},{"type":"error","name":"Lottery__notEnoughPlayers","inputs":[]},{"type":"error","name":"Lottery__notOver","inputs":[]},{"type":"error","name":"OnlyCoordinatorCanFulfill","inputs":[{"name":"have","type":"address","internalType":"address"},{"name":"want","type":"address","internalType":"address"}]},{"type":"error","name":"OnlyOwnerOrCoordinator","inputs":[{"name":"have","type":"address","internalType":"address"},{"name":"owner","type":"address","internalType":"address"},{"name":"coordinator","type":"address","internalType":"address"}]},{"type":"error","name":"ZeroAddress","inputs":[]}],"bytecode":{"object":"0x610180604052600361ffff1660e09061ffff16815250600263ffffffff166101009063ffffffff16815250348015610035575f5ffd5b50604051612af5380380612af583398181016040528101906100579190610715565b8486858585858533805f60015f819055505f73ffffffffffffffffffffffffffffffffffffffff168273ffffffffffffffffffffffffffffffffffffffff16036100d6576040517f08c379a00000000000000000000000000000000000000000000000000000000081526004016100cd90610833565b60405180910390fd5b8160015f6101000a81548173ffffffffffffffffffffffffffffffffffffffff021916908373ffffffffffffffffffffffffffffffffffffffff1602179055505f73ffffffffffffffffffffffffffffffffffffffff168173ffffffffffffffffffffffffffffffffffffffff161461015957610158816102f460201b60201c565b5b5050505f73ffffffffffffffffffffffffffffffffffffffff168173ffffffffffffffffffffffffffffffffffffffff16036101c1576040517fd92e233d00000000000000000000000000000000000000000000000000000000815260040160405180910390fd5b8060035f6101000a81548173ffffffffffffffffffffffffffffffffffffffff021916908373ffffffffffffffffffffffffffffffffffffffff160217905550508560035f6101000a81548173ffffffffffffffffffffffffffffffffffffffff021916908373ffffffffffffffffffffffffffffffffffffffff1602179055508473ffffffffffffffffffffffffffffffffffffffff1660808173ffffffffffffffffffffffffffffffffffffffff16815250508360a081815250508263ffffffff1660c08163ffffffff16815250508161ffff1660e08161ffff16815250508063ffffffff166101008163ffffffff16815250506102c561042060201b60201c565b505050505050886101208181525050876101408181525050866101608181525050505050505050505050610991565b3373ffffffffffffffffffffffffffffffffffffffff168173ffffffffffffffffffffffffffffffffffffffff1603610362576040517f08c379a00000000000000000000000000000000000000000000000000000000081526004016103599061089b565b60405180910390fd5b8060025f6101000a81548173ffffffffffffffffffffffffffffffffffffffff021916908373ffffffffffffffffffffffffffffffffffffffff1602179055508073ffffffffffffffffffffffffffffffffffffffff1660015f9054906101000a900473ffffffffffffffffffffffffffffffffffffffff1673ffffffffffffffffffffffffffffffffffffffff167fed8889f560326eb138920d842192f0eb3dd22b4f139c87a2c57538e05bae127860405160405180910390a350565b61042e61055060201b60201c565b60035f9054906101000a900473ffffffffffffffffffffffffffffffffffffffff1673ffffffffffffffffffffffffffffffffffffffff1663a21a23e46040518163ffffffff1660e01b81526004016020604051808303815f875af1158015610499573d5f5f3e3d5ffd5b505050506040513d601f19601f820116820180604052508101906104bd91906108b9565b60078190555060035f9054906101000a900473ffffffffffffffffffffffffffffffffffffffff1673ffffffffffffffffffffffffffffffffffffffff1663bec4c08c600754306040518363ffffffff1660e01b8152600401610521929190610902565b5f604051808303815f87803b158015610538575f5ffd5b505af115801561054a573d5f5f3e3d5ffd5b50505050565b60015f9054906101000a900473ffffffffffffffffffffffffffffffffffffffff1673ffffffffffffffffffffffffffffffffffffffff163373ffffffffffffffffffffffffffffffffffffffff16146105df576040517f08c379a00000000000000000000000000000000000000000000000000000000081526004016105d690610973565b60405180910390fd5b565b5f5ffd5b5f819050919050565b6105f7816105e5565b8114610601575f5ffd5b50565b5f81519050610612816105ee565b92915050565b5f73ffffffffffffffffffffffffffffffffffffffff82169050919050565b5f61064182610618565b9050919050565b61065181610637565b811461065b575f5ffd5b50565b5f8151905061066c81610648565b92915050565b5f819050919050565b61068481610672565b811461068e575f5ffd5b50565b5f8151905061069f8161067b565b92915050565b5f63ffffffff82169050919050565b6106bd816106a5565b81146106c7575f5ffd5b50565b5f815190506106d8816106b4565b92915050565b5f61ffff82169050919050565b6106f4816106de565b81146106fe575f5ffd5b50565b5f8151905061070f816106eb565b92915050565b5f5f5f5f5f5f5f5f5f6101208a8c031215610733576107326105e1565b5b5f6107408c828d01610604565b99505060206107518c828d01610604565b98505060406107628c828d01610604565b97505060606107738c828d0161065e565b96505060806107848c828d0161065e565b95505060a06107958c828d01610691565b94505060c06107a68c828d016106ca565b93505060e06107b78c828d01610701565b9250506101006107c98c828d016106ca565b9150509295985092959850929598565b5f82825260208201905092915050565b7f43616e6e6f7420736574206f776e657220746f207a65726f00000000000000005f82015250565b5f61081d6018836107d9565b9150610828826107e9565b602082019050919050565b5f6020820190508181035f83015261084a81610811565b9050919050565b7f43616e6e6f74207472616e7366657220746f2073656c660000000000000000005f82015250565b5f6108856017836107d9565b915061089082610851565b602082019050919050565b5f6020820190508181035f8301526108b281610879565b9050919050565b5f602082840312156108ce576108cd6105e1565b5b5f6108db84828501610604565b91505092915050565b6108ed816105e5565b82525050565b6108fc81610637565b82525050565b5f6040820190506109155f8301856108e4565b61092260208301846108f3565b9392505050565b7f4f6e6c792063616c6c61626c65206279206f776e6572000000000000000000005f82015250565b5f61095d6016836107d9565b915061096882610929565b602082019050919050565b5f6020820190508181035f83015261098a81610951565b9050919050565b60805160a05160c05160e051610100516101205161014051610160516121026109f35f395f6113c501525f61139701525f8181610c320152610fd201525f61124701525f6111f101525f61121b01525f6111c301525f61040901526121025ff3fe608060405260043610610112575f3560e01c80638ac000211161009f578063c1af578511610063578063c1af578514610351578063e89e106a1461035b578063f2fde38b14610385578063f6eaffc8146103ad578063f94ef2eb146103e957610112565b80638ac00021146102835780638da5cb5b146102ad5780638ea98117146102d757806393d81d58146102ff5780639eccacf61461032757610112565b80634585e33b116100e65780634585e33b146101b65780634d875736146101de57806352e4b395146102065780636e04ff0d1461023057806379ba50971461026d57610112565b8062f714ce146101165780630e27e3df1461013e578063112940f9146101665780631fe543e31461018e575b5f5ffd5b348015610121575f5ffd5b5061013c600480360381019061013791906116ae565b6103ff565b005b348015610149575f5ffd5b50610164600480360381019061015f91906116ec565b6104a7565b005b348015610171575f5ffd5b5061018c600480360381019061018791906116ec565b61053d565b005b348015610199575f5ffd5b506101b460048036038101906101af9190611778565b6105d3565b005b3480156101c1575f5ffd5b506101dc60048036038101906101d7919061182a565b610697565b005b3480156101e9575f5ffd5b5061020460048036038101906101ff9190611875565b6106e7565b005b348015610211575f5ffd5b5061021a61077c565b60405161022791906118df565b60405180910390f35b34801561023b575f5ffd5b506102566004803603810190610251919061182a565b6107ad565b604051610264929190611968565b60405180910390f35b348015610278575f5ffd5b506102816107d2565b005b34801561028e575f5ffd5b50610297610963565b6040516102a491906119a5565b60405180910390f35b3480156102b8575f5ffd5b506102c1610969565b6040516102ce91906119cd565b60405180910390f35b3480156102e2575f5ffd5b506102fd60048036038101906102f891906116ec565b610991565b005b34801561030a575f5ffd5b50610325600480360381019061032091906116ec565b610b6e565b005b348015610332575f5ffd5b5061033b610c0b565b6040516103489190611a41565b60405180910390f35b610359610c30565b005b348015610366575f5ffd5b5061036f610d31565b60405161037c91906119a5565b60405180910390f35b348015610390575f5ffd5b506103ab60048036038101906103a691906116ec565b610d37565b005b3480156103b8575f5ffd5b506103d360048036038101906103ce9190611a5a565b610d4b565b6040516103e091906119a5565b60405180910390f35b3480156103f4575f5ffd5b506103fd610d6b565b005b610407610ed2565b7f000000000000000000000000000000000000000000000000000000000000000073ffffffffffffffffffffffffffffffffffffffff1663a9059cbb82846040518363ffffffff1660e01b8152600401610462929190611a85565b6020604051808303815f875af115801561047e573d5f5f3e3d5ffd5b505050506040513d601f19601f820116820180604052508101906104a29190611ad6565b505050565b6104af610ed2565b60035f9054906101000a900473ffffffffffffffffffffffffffffffffffffffff1673ffffffffffffffffffffffffffffffffffffffff1663cb631797600754836040518363ffffffff1660e01b815260040161050d929190611b01565b5f604051808303815f87803b158015610524575f5ffd5b505af1158015610536573d5f5f3e3d5ffd5b5050505050565b610545610ed2565b60035f9054906101000a900473ffffffffffffffffffffffffffffffffffffffff1673ffffffffffffffffffffffffffffffffffffffff1663bec4c08c600754836040518363ffffffff1660e01b81526004016105a3929190611b01565b5f604051808303815f87803b1580156105ba575f5ffd5b505af11580156105cc573d5f5f3e3d5ffd5b5050505050565b60035f9054906101000a900473ffffffffffffffffffffffffffffffffffffffff1673ffffffffffffffffffffffffffffffffffffffff163373ffffffffffffffffffffffffffffffffffffffff1614610687573360035f9054906101000a900473ffffffffffffffffffffffffffffffffffffffff166040517f1cf993f400000000000000000000000000000000000000000000000000000000815260040161067e929190611b28565b60405180910390fd5b610692838383610f63565b505050565b5f15156106a261077c565b1515036106db576040517f357ff6fd00000000000000000000000000000000000000000000000000000000815260040160405180910390fd5b6106e3611171565b5050565b8273ffffffffffffffffffffffffffffffffffffffff166323b872dd8330846040518463ffffffff1660e01b815260040161072493929190611b4f565b6020604051808303815f875af1158015610740573d5f5f3e3d5ffd5b505050506040513d601f19601f820116820180604052508101906107649190611ad6565b5061076f60056112f1565b610777611387565b505050565b5f5f600a8054905090506009544210806107965750600281105b156107a4575f9150506107aa565b60019150505b90565b5f60606107b861077c565b60405180602001604052805f815250915091509250929050565b60025f9054906101000a900473ffffffffffffffffffffffffffffffffffffffff1673ffffffffffffffffffffffffffffffffffffffff163373ffffffffffffffffffffffffffffffffffffffff1614610861576040517f08c379a000000000000000000000000000000000000000000000000000000000815260040161085890611bde565b60405180910390fd5b5f60015f9054906101000a900473ffffffffffffffffffffffffffffffffffffffff1690503360015f6101000a81548173ffffffffffffffffffffffffffffffffffffffff021916908373ffffffffffffffffffffffffffffffffffffffff1602179055505f60025f6101000a81548173ffffffffffffffffffffffffffffffffffffffff021916908373ffffffffffffffffffffffffffffffffffffffff1602179055503373ffffffffffffffffffffffffffffffffffffffff168173ffffffffffffffffffffffffffffffffffffffff167f8be0079c531659141344cd1fd0a4f28419497f9722a3daafe3b4186f6b6457e060405160405180910390a350565b60075481565b5f60015f9054906101000a900473ffffffffffffffffffffffffffffffffffffffff16905090565b610999610969565b73ffffffffffffffffffffffffffffffffffffffff163373ffffffffffffffffffffffffffffffffffffffff1614158015610a21575060035f9054906101000a900473ffffffffffffffffffffffffffffffffffffffff1673ffffffffffffffffffffffffffffffffffffffff163373ffffffffffffffffffffffffffffffffffffffff1614155b15610a8f5733610a2f610969565b60035f9054906101000a900473ffffffffffffffffffffffffffffffffffffffff166040517f061db9c1000000000000000000000000000000000000000000000000000000008152600401610a8693929190611bfc565b60405180910390fd5b5f73ffffffffffffffffffffffffffffffffffffffff168173ffffffffffffffffffffffffffffffffffffffff1603610af4576040517fd92e233d00000000000000000000000000000000000000000000000000000000815260040160405180910390fd5b8060035f6101000a81548173ffffffffffffffffffffffffffffffffffffffff021916908373ffffffffffffffffffffffffffffffffffffffff1602179055507fd1a6a14209a385a964d036e404cb5cfb71f4000cdb03c9366292430787261be681604051610b6391906119cd565b60405180910390a150565b610b76610ed2565b60035f9054906101000a900473ffffffffffffffffffffffffffffffffffffffff1673ffffffffffffffffffffffffffffffffffffffff16630ae09540600754836040518363ffffffff1660e01b8152600401610bd4929190611b01565b5f604051808303815f87803b158015610beb575f5ffd5b505af1158015610bfd573d5f5f3e3d5ffd5b505050505f60078190555050565b60035f9054906101000a900473ffffffffffffffffffffffffffffffffffffffff1681565b7f00000000000000000000000000000000000000000000000000000000000000003414610c9457346040517f26294cab000000000000000000000000000000000000000000000000000000008152600401610c8b91906119a5565b60405180910390fd5b6008544210610ccf576040517f61024c0c00000000000000000000000000000000000000000000000000000000815260040160405180910390fd5b600a33908060018154018082558091505060019003905f5260205f20015f9091909190916101000a81548173ffffffffffffffffffffffffffffffffffffffff021916908373ffffffffffffffffffffffffffffffffffffffff160217905550565b60065481565b610d3f610ed2565b610d48816113ff565b50565b60058181548110610d5a575f80fd5b905f5260205f20015f915090505481565b60025f5403610daf576040517f08c379a0000000000000000000000000000000000000000000000000000000008152600401610da690611c7b565b60405180910390fd5b60025f819055505f600b5f3373ffffffffffffffffffffffffffffffffffffffff1673ffffffffffffffffffffffffffffffffffffffff1681526020019081526020015f205490505f8103610e30576040517fe549ae8200000000000000000000000000000000000000000000000000000000815260040160405180910390fd5b600b5f3373ffffffffffffffffffffffffffffffffffffffff1673ffffffffffffffffffffffffffffffffffffffff1681526020019081526020015f205f9055610e7a338261152b565b3373ffffffffffffffffffffffffffffffffffffffff167f31d3317f3f01e2af0b51f534c26c80a0d0df88e2aac167c1e018de3172914c7e82604051610ec091906119a5565b60405180910390a25060015f81905550565b60015f9054906101000a900473ffffffffffffffffffffffffffffffffffffffff1673ffffffffffffffffffffffffffffffffffffffff163373ffffffffffffffffffffffffffffffffffffffff1614610f61576040517f08c379a0000000000000000000000000000000000000000000000000000000008152600401610f5890611ce3565b60405180910390fd5b565b5f600a8054905090505f600a8285855f818110610f8357610f82611d01565b5b90506020020135610f949190611d5b565b81548110610fa557610fa4611d01565b5b905f5260205f20015f9054906101000a900473ffffffffffffffffffffffffffffffffffffffff1690505f7f000000000000000000000000000000000000000000000000000000000000000083610ffc9190611db8565b9050611006611387565b5f8273ffffffffffffffffffffffffffffffffffffffff168260405161102b90611e26565b5f6040518083038185875af1925050503d805f8114611065576040519150601f19603f3d011682016040523d82523d5f602084013e61106a565b606091505b50509050806111195781600b5f8573ffffffffffffffffffffffffffffffffffffffff1673ffffffffffffffffffffffffffffffffffffffff1681526020019081526020015f205f8282546110bf9190611e3a565b925050819055508273ffffffffffffffffffffffffffffffffffffffff167f0914d3724cbf701c5c1fef489c7dd58322ee151dee11ce3a5a4250ac0d78f2b98360405161110c91906119a5565b60405180910390a2611168565b8273ffffffffffffffffffffffffffffffffffffffff167f2484230f0b6c3baaaaded54a003c0ff9b2749ab658a62dd15351c1f28c6bdd538360405161115f91906119a5565b60405180910390a25b50505050505050565b611179610ed2565b60035f9054906101000a900473ffffffffffffffffffffffffffffffffffffffff1673ffffffffffffffffffffffffffffffffffffffff16639b1c385e6040518060c001604052807f0000000000000000000000000000000000000000000000000000000000000000815260200160075481526020017f000000000000000000000000000000000000000000000000000000000000000061ffff1681526020017f000000000000000000000000000000000000000000000000000000000000000063ffffffff1681526020017f000000000000000000000000000000000000000000000000000000000000000063ffffffff16815260200161128a60405180602001604052805f1515815250611548565b8152506040518263ffffffff1660e01b81526004016112a99190611f9c565b6020604051808303815f875af11580156112c5573d5f5f3e3d5ffd5b505050506040513d601f19601f820116820180604052508101906112e99190611fd0565b600681905550565b6112f9610ed2565b60035f9054906101000a900473ffffffffffffffffffffffffffffffffffffffff1673ffffffffffffffffffffffffffffffffffffffff1663115e3c0d600754836040518363ffffffff1660e01b8152600401611357929190611ffb565b5f604051808303815f87803b15801561136e575f5ffd5b505af1158015611380573d5f5f3e3d5ffd5b5050505050565b600a5f61139491906115e0565b5f7f0000000000000000000000000000000000000000000000000000000000000000426113c19190611e3a565b90507f0000000000000000000000000000000000000000000000000000000000000000816113ef9190611e3a565b6009819055508060088190555050565b3373ffffffffffffffffffffffffffffffffffffffff168173ffffffffffffffffffffffffffffffffffffffff160361146d576040517f08c379a00000000000000000000000000000000000000000000000000000000081526004016114649061206c565b60405180910390fd5b8060025f6101000a81548173ffffffffffffffffffffffffffffffffffffffff021916908373ffffffffffffffffffffffffffffffffffffffff1602179055508073ffffffffffffffffffffffffffffffffffffffff1660015f9054906101000a900473ffffffffffffffffffffffffffffffffffffffff1673ffffffffffffffffffffffffffffffffffffffff167fed8889f560326eb138920d842192f0eb3dd22b4f139c87a2c57538e05bae127860405160405180910390a350565b5f385f3884865af16115445763b12d13eb5f526004601cfd5b5050565b60607f92fd13387c7fe7befbc38d303d6468778fb9731bc4583f17d92989c6fcfdeaaa8260405160240161157c91906120b3565b604051602081830303815290604052907bffffffffffffffffffffffffffffffffffffffffffffffffffffffff19166020820180517bffffffffffffffffffffffffffffffffffffffffffffffffffffffff83818316178352505050509050919050565b5080545f8255905f5260205f20908101906115fb91906115fe565b50565b5b80821115611615575f815f9055506001016115ff565b5090565b5f5ffd5b5f5ffd5b5f819050919050565b61163381611621565b811461163d575f5ffd5b50565b5f8135905061164e8161162a565b92915050565b5f73ffffffffffffffffffffffffffffffffffffffff82169050919050565b5f61167d82611654565b9050919050565b61168d81611673565b8114611697575f5ffd5b50565b5f813590506116a881611684565b92915050565b5f5f604083850312156116c4576116c3611619565b5b5f6116d185828601611640565b92505060206116e28582860161169a565b9150509250929050565b5f6020828403121561170157611700611619565b5b5f61170e8482850161169a565b91505092915050565b5f5ffd5b5f5ffd5b5f5ffd5b5f5f83601f84011261173857611737611717565b5b8235905067ffffffffffffffff8111156117555761175461171b565b5b6020830191508360208202830111156117715761177061171f565b5b9250929050565b5f5f5f6040848603121561178f5761178e611619565b5b5f61179c86828701611640565b935050602084013567ffffffffffffffff8111156117bd576117bc61161d565b5b6117c986828701611723565b92509250509250925092565b5f5f83601f8401126117ea576117e9611717565b5b8235905067ffffffffffffffff8111156118075761180661171b565b5b6020830191508360018202830111156118235761182261171f565b5b9250929050565b5f5f602083850312156118405761183f611619565b5b5f83013567ffffffffffffffff81111561185d5761185c61161d565b5b611869858286016117d5565b92509250509250929050565b5f5f5f6060848603121561188c5761188b611619565b5b5f6118998682870161169a565b93505060206118aa8682870161169a565b92505060406118bb86828701611640565b9150509250925092565b5f8115159050919050565b6118d9816118c5565b82525050565b5f6020820190506118f25f8301846118d0565b92915050565b5f81519050919050565b5f82825260208201905092915050565b8281835e5f83830152505050565b5f601f19601f8301169050919050565b5f61193a826118f8565b6119448185611902565b9350611954818560208601611912565b61195d81611920565b840191505092915050565b5f60408201905061197b5f8301856118d0565b818103602083015261198d8184611930565b90509392505050565b61199f81611621565b82525050565b5f6020820190506119b85f830184611996565b92915050565b6119c781611673565b82525050565b5f6020820190506119e05f8301846119be565b92915050565b5f819050919050565b5f611a09611a046119ff84611654565b6119e6565b611654565b9050919050565b5f611a1a826119ef565b9050919050565b5f611a2b82611a10565b9050919050565b611a3b81611a21565b82525050565b5f602082019050611a545f830184611a32565b92915050565b5f60208284031215611a6f57611a6e611619565b5b5f611a7c84828501611640565b91505092915050565b5f604082019050611a985f8301856119be565b611aa56020830184611996565b9392505050565b611ab5816118c5565b8114611abf575f5ffd5b50565b5f81519050611ad081611aac565b92915050565b5f60208284031215611aeb57611aea611619565b5b5f611af884828501611ac2565b91505092915050565b5f604082019050611b145f830185611996565b611b2160208301846119be565b9392505050565b5f604082019050611b3b5f8301856119be565b611b4860208301846119be565b9392505050565b5f606082019050611b625f8301866119be565b611b6f60208301856119be565b611b7c6040830184611996565b949350505050565b5f82825260208201905092915050565b7f4d7573742062652070726f706f736564206f776e6572000000000000000000005f82015250565b5f611bc8601683611b84565b9150611bd382611b94565b602082019050919050565b5f6020820190508181035f830152611bf581611bbc565b9050919050565b5f606082019050611c0f5f8301866119be565b611c1c60208301856119be565b611c2960408301846119be565b949350505050565b7f5265656e7472616e637947756172643a207265656e7472616e742063616c6c005f82015250565b5f611c65601f83611b84565b9150611c7082611c31565b602082019050919050565b5f6020820190508181035f830152611c9281611c59565b9050919050565b7f4f6e6c792063616c6c61626c65206279206f776e6572000000000000000000005f82015250565b5f611ccd601683611b84565b9150611cd882611c99565b602082019050919050565b5f6020820190508181035f830152611cfa81611cc1565b9050919050565b7f4e487b71000000000000000000000000000000000000000000000000000000005f52603260045260245ffd5b7f4e487b71000000000000000000000000000000000000000000000000000000005f52601260045260245ffd5b5f611d6582611621565b9150611d7083611621565b925082611d8057611d7f611d2e565b5b828206905092915050565b7f4e487b71000000000000000000000000000000000000000000000000000000005f52601160045260245ffd5b5f611dc282611621565b9150611dcd83611621565b9250828202611ddb81611621565b91508282048414831517611df257611df1611d8b565b5b5092915050565b5f81905092915050565b50565b5f611e115f83611df9565b9150611e1c82611e03565b5f82019050919050565b5f611e3082611e06565b9150819050919050565b5f611e4482611621565b9150611e4f83611621565b9250828201905080821115611e6757611e66611d8b565b5b92915050565b5f819050919050565b611e7f81611e6d565b82525050565b611e8e81611621565b82525050565b5f61ffff82169050919050565b611eaa81611e94565b82525050565b5f63ffffffff82169050919050565b611ec881611eb0565b82525050565b5f82825260208201905092915050565b5f611ee8826118f8565b611ef28185611ece565b9350611f02818560208601611912565b611f0b81611920565b840191505092915050565b5f60c083015f830151611f2b5f860182611e76565b506020830151611f3e6020860182611e85565b506040830151611f516040860182611ea1565b506060830151611f646060860182611ebf565b506080830151611f776080860182611ebf565b5060a083015184820360a0860152611f8f8282611ede565b9150508091505092915050565b5f6020820190508181035f830152611fb48184611f16565b905092915050565b5f81519050611fca8161162a565b92915050565b5f60208284031215611fe557611fe4611619565b5b5f611ff284828501611fbc565b91505092915050565b5f60408201905061200e5f830185611996565b61201b6020830184611996565b9392505050565b7f43616e6e6f74207472616e7366657220746f2073656c660000000000000000005f82015250565b5f612056601783611b84565b915061206182612022565b602082019050919050565b5f6020820190508181035f8301526120838161204a565b9050919050565b612093816118c5565b82525050565b602082015f8201516120ad5f85018261208a565b50505050565b5f6020820190506120c65f830184612099565b9291505056fea2646970667358221220c0ac3c7882b7e82c20fbacfa7ddba8c8d5dbfd759d39171be7cf5aa9b1d2bc9664736f6c634300081e0033","linkReferences":{}},"methodIdentifiers":{"acceptOwnership()":"79ba5097","addConsumer(address)":"112940f9","cancelSubscription(address)":"93d81d58","checkUpkeep(bytes)":"6e04ff0d","enterLottery()":"c1af5785","fundAndStartLottery(address,address,uint256)":"4d875736","isLotteryOver()":"52e4b395","owner()":"8da5cb5b","performUpkeep(bytes)":"4585e33b","rawFulfillRandomWords(uint256,uint256[])":"1fe543e3","removeConsumer(address)":"0e27e3df","s_randomWords(uint256)":"f6eaffc8","s_requestId()":"e89e106a","s_subscriptionId()":"8ac00021","s_vrfCoordinator()":"9eccacf6","setCoordinator(address)":"8ea98117","transferOwnership(address)":"f2fde38b","winnerFallbackWithdrawal()":"f94ef2eb","withdraw(uint256,address)":"00f714ce"},"id":53}